:100000000C9436480C94DB480C94DB480C94DB4889
:100010000C94DB480C94DB480C94DB480C94DB48D4
:100020000C94DB480C94DB480C94DB480C94DB48C4
:100030000C94DB480C94204B0C94DB480C94DB486C
:100040000C94DB480C94DB480C94DB480C94DB48A4
:100050000C94DB480C94DB480C94DB480C94DB4894
:100060000C94DB480C94DB480C94DB480C94DB4884
:100070005A5501200201003808000000000000006D
:100080000000000000DD54EB54755550593A59EE0C
:1000900054FD540C5520591A5528551E1C000000BB
:1000A0000000000000000000000000000000000050
:1000B0000000000000000000000000000000000040
:1000C0000000000000000000000000000000000030
:1000D0000000000000000000000000000000000020
:1000E0000000000000000000000000000000000010
:1000F0000000000000000000000000000000000000
:1001000000000000000000000000000000000000EF
:1001100000000000000000000000000000000000DF
:1001200000000000000000000000000000000000CF
:1001300000000000000000000000000000010203B9
:10014000040506070809070A000000000000000077
:1001500000000000000000000000070B0C0D0E0F57
:10016000101112131415001600000000000000000A
:1001700000000000000000001718191A1B1C1D1EAB
:100180001F202122232400000000000000000000A6
:1001900000000000000725262728292A2B2C2D2EB9
:1001A0002F3031320000000000000000000000008D
:1001B0000000333435363738393A3B3C3D3E3F401A
:1001C0004142000000000000000000000000004369
:1001D00044454647484949494A4B4C4D4E4F50517A
:1001E000000000000000000000000000000052536A
:1001F0005455564949494949495758595A5B00008D
:100200000000000000000000000000005C5D5E5F78
:1002100060494949494949496162636400000000F5
:1002200000000000000000000000656667684949A2
:1002300049494949494949696A6B00000000000081
:1002400000000000000000006C6D6E6F4970714985
:10025000494949494972730000000000000000004C
:1002600000000000000000747576777879497A7B89
:100270007C49497D7E000000000000000000000075
:10028000000000000000007F80818249838485494E
:100290004986870000000000000000000000000008
:1002A00000000000000088898A498B8C8D8E498F60
:1002B000000000000000000000000000000000003E
:1002C0000000000000009091929394959697000092
:1002D000000000000000000000000000000000001E
:1002E0000000000098999A00009B9C870000000085
:1002F00000000000000000000000000000000000FE
:1003000000000000000000000000000000000000ED
:10031000000000000000000000009D9E9FA0A1A220
:10032000A3A4A5A6A7A8A9AAABAC00000000000042
:100330000000000000000000ADAEAFB0B1B2B3B439
:10034000B5B6B7B8B9BABBBC0000000000000000E9
:10035000000000000000000000000000000000009D
:10036000000000000000000000000000000000008D
:10037000000000000000000000000000000000007D
:10038000000000000000000000000000000000006D
:10039000000000000000000000000000000000005D
:1003A000000000000000000000000000000000004D
:1003B000000000000000000000000000000000003D
:1003C000000000000000000000000000000000002D
:1003D000000000000000000000000000000000001D
:1003E000000000000000000000000000000000000D
:1003F00000000000000000000000000000000000FD
:1004000000000000000000000000000000000000EC
:1004100000000000000000000000000000000000DC
:1004200000000000000000000000000000000000CC
:1004300000000000000000000000000000000000BC
:1004400000000000000000000000000000000000AC
:10045000000000000000000000000000010000009B
:10046000000000010100000000000000000000008A
:10047000000000000000000000000000000000007C
:10048000000000000000000000000000000000006C
:100490000000010101000000000001010101000055
:1004A0000001020202000000000000000000000045
:1004B000000000000000000000000000000000003C
:1004C0000000000000010000000000000001010029
:1004D0000000000000010001000000000001010018
:1004E000000000000000000000000000000000000C
:1004F00000000000000000000000000000000000FC
:1005000000000000000000000000000000000000EB
:1005100000000000000000000100000000000001D9
:1005200000010000000000000000000000000000CA
:1005300000000000010000000000000001000000B9
:1005400000000001010000000000000101000000A7
:100550000000010101000000000001010100000095
:100560000001010202000000000000000000010084
:100570000000010000000001000100000000010077
:100580000101000100010001010101000001010160
:10059000010101000001010202010101000102024A
:1005A0000202010000000000000000000000000046
:1005B000000000000000000000000000000000003B
:1005C000000000000000000000000000000000002B
:1005D000000000000000000000000000000000001B
:1005E000000000000100000000000000000000000A
:1005F00000000000000000000000000000000000FB
:1006000000000000000000000000000000000000EA
:1006100000000000000101000000000001010100D5
:1006200000000001000000000000000000000000C9
:1006300000000000000000000000000000000000BA
:1006400000000000000000000000000000010000A9
:100650000000000000000101000000000001010096
:10066000000000000000000000000000000000008A
:10067000000000000000000000000000000000007A
:10068000000000000000000000000000000000006A
:100690000000000000010000000000000001000058
:1006A0000000000000000001010100010100000144
:1006B0000101010101000001020202020200010128
:1006C0000203030202010102020403030301010207
:1006D00003040404030101020304050403010102ED
:1006E00003040504040100000001020302010000EC
:1006F00001020303030101000102030303010101DD
:1007000001030304030101010203040403020101C4
:100710000203040403020202030C040403020202A3
:1007200003040C04040201000000000000020101A7
:1007300000000000000201000100000100020101B0
:10074000000000000102010101000101010201019C
:100750000100010102020201010001010203020283
:10076000010101010300010101000000000101017C
:10077000010100000001020A0100000000020A025B
:100780000100000000020B0A01000100010B0B0A2E
:1007900001000101000B0C0A01010001010B0C0A10
:1007A000010101010100000000010202020000003D
:1007B0000101020202000000000203030300000026
:1007C000010203030300000001030404030000000E
:1007D00001030404040100000103040404010000F7
:1007E00001030405050202030202010001020303E2
:1007F00003010101000303030301010100030304DA
:1008000002010100010404030201010100040403C8
:1008100002010101010404030202010101040403B5
:1008200002020201010000000000000001000000BF
:1008300000000001020000000000010102000000B1
:100840000000010202000101010102020301000196
:100850000001020303010101010203030402020279
:100860000102030404010100000000000102010173
:10087000000001010102010100000001010201016B
:100880000000010102020101000101010203020155
:10089000000001020203020101010102030403013D
:1008A0000001020303010101000000000001010139
:1008B000010000000002020100000000000202012D
:1008C000000000000002020100000000000201011F
:1008D000000000000002020101000000000201010E
:1008E0000100000001000000000000010200000003
:1008F00001000101020000010101010303000101E7
:1009000001010203030101020202030403010102C7
:1009100003030404040102030304040403010203A7
:1009200004040504030101000000000000020100AE
:1009300000000000000201000000000000020000B2
:1009400000000000000201000000000000010000A3
:100950000000000000020000000000000001000094
:100960000000000000000000000000000000000087
:100970000000000000000000000000000000000077
:100980000000000000000000000000000000000067
:100990000000000000000001000000000001010054
:1009A0000000000000000000000000000000000047
:1009B0000000000001000000000000000100000035
:1009C0000000000101000000000001010200000021
:1009D000000001020300000000000102030000000B
:1009E00000000002030102020405040404010202E3
:1009F00003050504030102030404040404010203C3
:100A000004050404040202030404040404020303AE
:100A100004050404040303040404050C040404048E
:100A2000040504050D020202030C0405040302037D
:100A30000B0D0D0C04030303040C0D0D0403030341
:100A40000C0D150D040303030C15150C0C04030405
:100A50000C15150D0C0C04030C151D150D0C040CB8
:100A60000C151D150C030302020101020B03030305
:100A7000010101020B040B0302010202030C030338
:100A8000020202030B040C0C0302020B0B0C0C0CF5
:100A9000030203030C0C0C0C0B030B0B0C0C150CBE
:100AA0000B030B040C0C140A010101020214140ABA
:100AB00001010A0B0214140A0A020B0B0B14140A8C
:100AC0000A0B0B0C0C151C0B0B0B14140C141C1424
:100AD00013141414141D1C1C141C1515141C1D1D9A
:100AE0001D1C1D1414010001010304050401010073
:100AF0000102040D05020101010203050C020202BC
:100B00000202030C050B020B030303040D0B0B0382
:100B10000C040C040C0C0B040D0D0D0D0D0C0C0C29
:100B20000D0D0D0D0D0504030B030202020C040450
:100B30000B03020203050C0C0C0B0B0B030C0D0D2D
:100B40000C0C0B030C0D0D0C0C0C0C0C0C0D0D15E2
:100B50000C0C0C0C0C0D150C1514140C0C0C0D15A8
:100B600015140D1414020202020303040D03030200
:100B70000203040D040B03030304040D0D040C0C09
:100B8000040C0D0D0D0C0C0C040C0D150D0C0C0CA7
:100B90000C0D15150D14150D0C1515150D15151439
:100BA00015151D150D0403010101020303040302C1
:100BB000010102030304030202020303030503020B
:100BC000020203040304040302030304030C0403EA
:100BD000030304040C040403040304040C0C0404C1
:100BE0000404040C0C0202010101000100020202D3
:100BF000010101000103020A03020101010B030BC1
:100C00000B030201010B0B0C0C030202010C0C1470
:100C10000C0C0302020C14150C0C0C0302141D1511
:100C2000150D0C030302030404040504030203046A
:100C3000040504040202030404050504020204047A
:100C40000505040302030405050504040203040466
:100C50000505040302030405050505030203040555
:100C6000050504030301000000000000000100006E
:100C70000000000000010100000000000101000070
:100C80000000000001010101010001010101010159
:100C9000010101020102020101020202020202023A
:100CA0000202030302000000000000000100010036
:100CB000000001010101000000000101010100012B
:100CC0000001010101010100010102010101010115
:100CD00001020101010101010202010101010202FF
:100CE00002020101000100010000000000010000FB
:100CF00000000000000101000000000000010000F1
:100D000000000000000000000000000000000000E3
:100D100000000000000000000000000000010100D1
:100D200000000000000000000000000203000000BE
:100D300000000001030000000000000102000000AC
:100D40000000010102000000000101010201000099
:100D50000000010202010101000102030B01010078
:100D60000101030B0C0C04040404050C0D0C040419
:100D70000504050D15030D0C050C050C150B0C05D4
:100D80000C050D0D15030C0C0D050C0D150B0C0CA5
:100D90000D0D0D0D15030C0C0D0C0D0D150C0C0C83
:100DA000140D0D0D150D0C040C1D1D1D0D15150C30
:100DB0000C15261D151D1D150C15251D1D251D1D8C
:100DC000151525261D2526251515252625252E250F
:100DD000251D1D2E25252E2E261D252E2E252E2D9C
:100DE0002625252E2E15150C0C0B0C0C0C1D1D1478
:100DF0000C0C0C0C0C1D1D150C14140C0C262515BC
:100E0000141515140C26251D151D1D150C2E261D3B
:100E10001D2525150C2E25251D26251D152E2E26B6
:100E2000252D2E1D151D25251D1D1D1D151D2525B9
:100E3000251D1D1C1D15252525251D1D1C1D252EAB
:100E4000251D25251D1D252D252525251D1D262E68
:100E5000252D25251D1D2E2D2E2E2E251D1D2D2E1D
:100E60002E2E2D2525140C0D0D0D0D1515140C0D04
:100E70000D15151515150C140D1515151D14151535
:100E80001515151D1D1514151D1D151D1D151D1DD3
:100E90001D1D151D1D1D1D1D251D1D1D251D25256A
:100EA00025251D1D1D1515151415141515151515BC
:100EB00015141514151D1D151D1D1D1D1D1D1D1D94
:100EC0001D1D1D1D1D1D1D1D252525251D251D2522
:100ED000252D2525251D25252D2E2E2525252525A8
:100EE0002E362D2E25151515151D1D150D1C1D1520
:100EF0001D1D1D150D1D1D151D251D150D1D1D1D52
:100F00001D1D251515251D1D1D251D1D151D1D1D11
:100F10002525251D1D251D1D2525251D1D251D1DC1
:100F2000252E251D1D04040C0C040C04150C0D04A9
:100F30000D04050C150C0D0D0D0D0C0D1C151515C6
:100F4000150C0D0C1D151D1D150D0D151D1D1D1D43
:100F50001D150C15251D1D25251D151D251D2525BA
:100F600026251D1D1D151D1415150D04031D1D1D04
:100F700015150C04031D1D1D15150D0C031D1D1D40
:100F8000150D0D0504251D1D150D0D04041D1D1D3C
:100F9000150D0D0504251D1D150D0D0504251D1D23
:100FA000150D0D0C050305050504040403040505D2
:100FB00005050403030404050505040403040505ED
:100FC00005040404040405050404040404050505DB
:100FD0000D050C040404050C0D0D0D050D050D1576
:100FE000150D0D04040202020303040302030303AC
:100FF00004040403020403040404040303040404B7
:10100000050D04030304040D0D0D040403040D0D6C
:101010000D0D040303040D0D0D0D0504030D0D0D41
:10102000150D04040402020202020201020203037B
:10103000020202020202030303020302010303038A
:101040000303020201030303030302010004040477
:101050000403010100040404030201010004040468
:101060000302010001010100000000000001000076
:10107000000000000001000000000000000000006F
:10108000000000000000000000000000000100005F
:101090000000000000000000000000000000000050
:1010A0000000000000000000000000000000000040
:1010B0000000000000000000000000000000000030
:1010C000000000000000000000000001010000001E
:1010D000000000010000000000000101010000000C
:1010E00000010101020000010000000101000001F7
:1010F00001000001010000010101000102000101E5
:1011000001010101020101010101010203010102CA
:1011100002010102020101020202010203020202B3
:1011200003020202030201010101020C0C0202018E
:101130000101020B0D020202010102030C03020273
:10114000020202020C030302020202030B03030267
:101150000202030303030302020203030C0303035B
:10116000030203040C1415150D150D1515150C159A
:1011700015150D0D15151514151515151D0C151531
:10118000151515151D0C15151D1515151D0C14150A
:10119000151D151D1D0C0C15151D151D250C0D15EA
:1011A0001D151D1D26252E2E2E25262E2D1D2E2EDF
:1011B0002E2E2D2E2E262D362E362E2E2E1D2E2E5A
:1011C0003636362E36262D2E3636363676262E2EC8
:1011D00036363676FF262D2E36367EFFFF2E2E2E05
:1011E0003636BFFFFF362E252E2E2E1D15362E2EFF
:1011F0006E76B7B666363676FFFFFFFFFF76FFFFE7
:10120000FFFFFFFFFFFFFFFFFFFFFFFFFFFFFFFFEE
:10121000FFFFFFFFFFFFFFFFFFFFFFFFFFFFFFFFDE
:10122000FFFFFFFFFF252E2E36362E2D256E2E3684
:1012300036362E2E2DB776363636362E2EFFFFFF5B
:101240007636363636FFFFFFFFBF363636FFFFFFF6
:10125000FFFFFF3636FFFFFFFFFFFFFFFFFFFFFF30
:10126000FFFFFFFFFF25252E2E252625252E2E2DBF
:101270002E2E2D262536362E362E2E2D2E36363671
:101280003636362E2E363636363636362E3E3676CE
:101290007F767E7676FFFFFFFFFFFFFFFFFFFFFFFA
:1012A000FFFFFFFFFF2525252D2E362E2525252581
:1012B0002E36362E2D2E252E2D3636362E2D2E2D33
:1012C0002E3636362E2E2D2E2E3636362E76362EBF
:1012D000363636362EFFFFBE36363E3636FFFFFF39
:1012E000FF7F363636252525252E25251D251D254E
:1012F0002D2E2E25252525252E2D2E25252525256A
:10130000362E2E252E2D252E2E362D2E2E2E2D2E02
:10131000362E2E2D362E2E2E36363636363636369E
:10132000363636363625262D2E2D1D1D25252E2DFD
:101330002E2E2525252E2E2E3636252525363636DB
:10134000362E2E252536363636362D252636363699
:1013500036362E2D2D363E3636362E2E253E363658
:101360003E36362D2E251D1D15150D0D05251D1D71
:101370001D1515150D25251D1D15151515251D1DCD
:101380001D1D1D1D152525261D1D251D1D2525265B
:10139000251E252625262D2E25252625262D2E2ED5
:1013A00026262D2E2D0D0D1D1D150D0D0D0D151D9A
:1013B0001D150D0D05151D251D15150D0D1D1D25C5
:1013C0001D15150D0D1D25251D1D150D151D25267C
:1013D0001D15151515252525251D151515252E2534
:1013E000261D1D151D0D0D15150D0504040D1515D6
:1013F0000D0D0C04040D1515150D05050415151519
:10140000150D0D0504151D150D0C050405151D15EF
:10141000150D0D05041D15150D0D0C0D051D1D15C6
:10142000150D0D0D0404040403020101000404045D
:101430000302010100040404030201010105040484
:101440000302010101040504030102010105040472
:10145000030202020105040403020202010504045E
:10146000030302020201000000000000000100006E
:10147000000000000001000000000000000100006A
:10148000000000000001000000000000000100005A
:101490000000000000010000000000000002000049
:1014A000000000000000000000000000000000003C
:1014B000000000000000000000000000000000002C
:1014C000000000000000000000000001010000001A
:1014D000000000000100000000000000000000000B
:1014E00000000000000000000001010202000000F6
:1014F00000010203020000000102030303000101D6
:101500000202030404020202030404040C020303A3
:1015100004040D05040102030C05040D0C00010276
:1015200004040D0D0D020203030202030302020371
:10153000030303030303030303030303040303037A
:101540000303030B0303030304040304040C030455
:101550000B04040C5D04040C04030C9DFF0C0C0C28
:10156000040CAEFFFF0303030203030B0C0B040385
:10157000030354550C03040B0CA55D0B0C040C5D0C
:10158000AE5D0B040C14AEF75403030C0CF7FF55BF
:101590000C03030C0CFF5504040C030C0C5D040C31
:1015A0000404040C140C0C15151D1D1E250C0D1423
:1015B00015151D1D1D0D0C151515151D150C1415D6
:1015C00015151D1D150D1515141515151D141515BD
:1015D00015151D1D1D151D1D1D1D15151D151D1D6B
:1015E000251D1D1D1D252E2E367EFFFFFF252E2EAF
:1015F00036FFFFFFFF1D252E76FFFFFFFF1D1D2D70
:10160000B7FFFFFFFF1D2626BFFFFFFFFF1D25259C
:10161000FFFFFFFFFF252E2EBFFFFFFFFF1D2E2E1A
:10162000B6FFFFFFFFFFFFFFFFFFFFFFFFFFFFFF13
:10163000FFFFFFFFFFFFFFFFFFFFFFFFFFFFFFFFBA
:10164000FFFFFFFFFFFFFFFFFFFFFFFFFFFFFFFFAA
:10165000FFFFFFFFFFFFFFFFFFFFFFFFFFFFFFFF9A
:10166000FFFFFFFFFFFFFFFFFFFFBF7636FFFFFF1C
:10167000FFFFFFFFBFFFFFFFFFFFFFFFFFFFFFFFBA
:10168000FFFFFFFFFFFFFFFFFFFFFFFFFFFFFFFF6A
:10169000FFFFFFFFFFFFFFFFFFFFFFFFFFFFFFFF5A
:1016A000FFFFFFFFFF3636363636363E36763636A5
:1016B0003E363E373EFFBF773E373E3636FFFFFFB2
:1016C000FFFFBF7F7FFFFFFFFFFFFFFFFFFFFFFF6A
:1016D000FFFFFFFFFFFFFFFFFFFFFFFFFFFFFFFF1A
:1016E000FFFFFFFFFF3F363E3636362E2D363636AD
:1016F0003E36362E2E3E363F3636363636373E3678
:10170000363E36362EFFFFBF7F76363636FFFFFF7A
:10171000FFFFFFBF36FFFFFFFFFFFFFFFFFFFFFFE2
:10172000FFFFFFFFFF2E2E2D2D2E2E2D2E2D362EC0
:101730002E2E2E2E2D2E36362E362D2E2E36362EA3
:1017400036362E2E36363636362E36362E36363659
:1017500036362E3636BF7E363636363636FFFFBF45
:101760007E363636362E2D262525251D1D2E2E2D70
:101770002E2625251D2D2E2E2E2E2E2625362E36B6
:10178000362D2E252536363636362E2D253636364E
:1017900036362E252536363636362E2E2536363634
:1017A00036362E25251D1515150D150D051D1D1576
:1017B0001515150D0D1D1D151D15140D051D1D1DD2
:1017C0001D1D150D051D1D1D1D1D0D0D051D1D25A9
:1017D0001D1D150D041D252525150D0D0D25262571
:1017E0001D15150D0D050404030302020204050472
:1017F00004030303020504040403030303040504B0
:10180000040404030205040404040303020505059B
:1018100004040303030D050404040C030B05050471
:1018200004040404040100000000000000010000A2
:1018300000000000000101000000000000010001A4
:10184000010000000001020101000000000202018D
:10185000010000000003020100000000000302017B
:10186000000000000000010103040D0D0C00000148
:1018700002040D0D0D00000102030D1515000000FE
:10188000020B0D1515000001010B0D151D000101C6
:10189000010B151D1D0009090A0B141D6600090A1C
:1018A0000A0C1D1DB60C0D0C0DAEFFFFA60D0C1580
:1018B000B6FFFFAE0C1515AEFFFFF70D04156EFF5A
:1018C000FFFF5D0C0C65FFFFFFAE0D0C05B6FFFFC3
:1018D000FF150C0D0CFFFFFFAE0D0D0C0DFFFFFFF4
:1018E0001D150C0D0C0C0C040C04030C0C040C0C3E
:1018F0000C0C04030C0D0C0C0C0C0C0C0C0C0C0C38
:101900000C140C040C0C0D0C141D150C0C0D0C0CF3
:101910000D1D1D140C0C0D0C0C1D251D140D0D0D95
:101920000C1D2625141D1D2526251D25261D1D2DB6
:101930002E2E262E251525262E2E76B62E1D252D4D
:101940003636BF362E14262E2EBEB7362E1D252E29
:1019500076FF3636361D2D2EFFBF3636361D2676DF
:10196000FF76363636252E3636BFFFFFFF262E365B
:1019700036FFFFFFFF2D2E3676FFFFFFFF2E2E36A0
:101980007FFFFFFFFF2D2E36BFFFFFFFFF2E2E76BE
:10199000FFFFFFFFFF362E76FFFFFFFFFF3636FF0C
:1019A000FFFFFFFFFFFFFFFFFFBF763636FFFFFFA2
:1019B000FFFFFFBF36FFFFFFFFFFFFFFFFFFFFFF40
:1019C000FFFFFFFFFFFFFFFFFFFFFFFFFFFFFFFF27
:1019D000FFFFFFFFFFFFFFFFFFFFFFFFFFFFFFFF17
:1019E000FFFFFFFFFF363E3636362E2D2536363EBC
:1019F00036362E25253F363636362E2E26FF7F3EAE
:101A00003636362E2DFFFF763636362E2DFFFFFF6B
:101A10007F3636362EFFFFFFFF7E36362EFFFFFF66
:101A2000FFFF763636252D251D1515150D262E257D
:101A30001D1D1515152D2D1D1D1D1D150D2E2625C4
:101A40001D1D1D150D2E25252525150D0D2D2525B5
:101A50002625150D0D2E2D2E2D1D150D0D2D2E2E81
:101A6000251D0D0D150C04040C0C040C0B050504B0
:101A7000050D0C04030D0D0D0D0D0C0C030D050DC6
:101A80000D0C0C03020D0C0D140C0303010D1515A8
:101A9000150C0302010D15150C03020100151D158F
:101AA0000B0202010103010000000000000201001E
:101AB0000000000000010000000000000000000025
:101AC0000000000000000000000000000000000016
:101AD00001010000000101020101010000010202F8
:101AE000020201010000090A13141D65FF00010A2A
:101AF00013141D6EFF00080A131C1DB6FF00000A18
:101B0000131C1CFFFF00000913141DFFFF00000938
:101B10000A1C65FFFF000001121365FFFF000009AA
:101B20000A1425FFFFFFFFB61D150D0C0DFFFF6EFC
:101B30001D1D150D0CFFFF25251D15150DFFFF257E
:101B4000251D150D0CFFB62525251D1515FFB625E0
:101B50002E251D150CFFB62E252D1D1515FFB62E95
:101B60002D2E1D15140D0C140D1425251D150D0DF0
:101B7000141525261D0C15140D15252D1D15150DD7
:101B8000151425261D0D140D14151D2D25151515BF
:101B900015151D2E260D141515151D252D1515159C
:101BA000151D1D252E1D2EFFFF36363E361D6EFFE0
:101BB000B62E36363E2576FF762E36363625F7FF9C
:101BC0006E2E36363625B7FF363636363E6EFFFF7A
:101BD000763636363676FFFF363636367E36FFFFB9
:101BE0007E3636367736BFFFFFFFFFFFFF36BFFF7B
:101BF000FFFFFFFFFF7EFFFFFFFFFFFFFFBFFFFFB6
:101C0000FFFFFFFFFFBFFFFFFFFFFFFFFFFFFFFF24
:101C1000FFFFFFFFFFFFFFFFFFFFFFFFFFFFFFFFD4
:101C2000FFFFFFFFFFFFFFFFFFFFFF762EFFFFFF1E
:101C3000FFFFFFFF76FFFFFFFFFFFFFFFFFFFFFF3D
:101C4000FFFFFFFFFFFFFFFFFFFFFFFFFFFFFFFFA4
:101C5000FFFFFFFFFFFFFFFFFFFFFFFFFFFFFFFF94
:101C6000FFFFFFFFFF2E2E2D1D15151515362E25F6
:101C70001D15151D1D362E1D1D1D1D2525B7251DC8
:101C80001D25252D25FF76252E2E2E2E2DFFFF6EB0
:101C90002D36362D26FFFFBF36362E2D1DFFFFFFBA
:101CA00076363625151D1D14030201010225150C7B
:101CB0000B020202021D1D0C0B0203030325150C6F
:101CC0000C04030B031D150C0403030404150D0C75
:101CD00004040C04030D0C040C040404030D0C0494
:101CE00004040D04020203020201000000030301C8
:101CF00000000000000302010000000000030100DA
:101D000000000000000301000000000000010000CE
:101D100000000000000100000000000000010000C1
:101D200000000000000000000A131CFFFF0000017B
:101D300009131CF7FF00000109121BB6FF00000089
:101D4000090A13ADFF0000010109125CFF00000841
:101D500001090A13FF00010000010912AE00000092
:101D6000000009095CFFB72D2E2D1D1515FFFF364C
:101D7000362E1D1D15FFFF763626251D1DFFFFB6CD
:101D80002E2D252625FFFFBF362E2E2E2EFFFFFFE0
:101D9000762E2E362EFFFFFFFF36363636FFFFFF3C
:101DA000FF7E363636151515151D1D1D2E151515FC
:101DB0001D1D1D25261D1D151D2525252D1D151D2A
:101DC0001D2525262E251D1D1D262E252E261D1DD5
:101DD00025252E2E2E2E261D252E2E362E36252559
:101DE000262D362E3676FFFF36363E367F36FFFFFF
:101DF0007F36363EBF36FFFFBF3E3636FF36BFFF6B
:101E0000BF36373EBF36B7FFFF763E76FF367EFFE2
:101E1000FFBF367FFF3676FFFFFF367EFF3636BFC9
:101E2000FFFF7F7FFFFFFFFF7F362E1D15FFFFFFA8
:101E3000FF362D1D0DFFFFFFFF762E1D15FFFFFF47
:101E4000FFBF2E2515FFFFFFFFBF2E251DFFFFFF44
:101E5000FFFF362625FFFFFFFFFF762E2EFFFFFF39
:101E6000FFFF7E362E0C050D0D0D0403020D0D0D2A
:101E70000D050D03020D0D0D0D0D040403151515B3
:101E80000D0D040C031D15150D0D0C04031D1D1562
:101E90000D0C0403032615150D040C03021D1D155E
:101EA0000D0C03020101010100000000000101010D
:101EB0000100000000030201010000000003020213
:101EC0000000000000030201000000000002020107
:101ED00000000000000201010000000000010100FC
:101EE00000000000000000000000010912000000D6
:101EF0000000000912000000000000010A000000BC
:101F000000000008090000000000000001000000BF
:101F100000000000000000000000000000000000C1
:101F20000000000000B7FFFFFFFF76363E6DFFFFA9
:101F3000FFFFBF36361CF7FFFFFFFF773E136DFF35
:101F4000FFFFFFFF7F1213B6FFFFFFFFFF09131C08
:101F5000FFFFFFFFFF090A1B65FFFFFFFF000912DC
:101F60001C65FFFFFF362E26252E36363636362EDA
:101F7000252E3636363636362E2E3636363E363622
:101F80002E36363636773E36363636363EFFBF3656
:101F90003636363636FFFFFF7F36363636FFFFFFE2
:101FA000FFBF7F3E363636BFFFFFFFB6FF36367EB9
:101FB000FFFFFFFFFF363636BFFFFFFFFF3E36361F
:101FC0007EFFFFFFFF36363E37BFFFFFFF3F36364F
:101FD0003E36BFFFFF363E36363E36BFFF3E363713
:101FE0003E363E367EFFFFFFFFFFFFFFFFFFFFFF96
:101FF000FFFFFFFFFFFFFFFFFFFFFFFFFFFFFFFFF1
:10200000FFFFFFFFFFFFFFFFFFFFFFFFFFFFFFFFE0
:10201000BFFFFFFFFFFFFFFF36BFFFB625FFB62E56
:102020002D2E762524FFFFFFFFFFFFFFFFFFFFFFA1
:10203000FFFFFFFFFFFFFFFFFFFFFFFFFFFFFFFFB0
:10204000FFFFFFFFFFFFFFFFFFFFFFFFFFB67676FB
:10205000BFFFFFFFFF2D2D2E3676FFFFFF1C252D26
:102060002E36BFFFFFFFFFFFFFFFBF3636FFFFFF2C
:10207000FFFFFF3636FFFFFFFFFFFF7E36FFFFFF4C
:10208000FFFFFFBF36FFFFFFFFFFFFFF36FFFFFF32
:10209000FFFFFFFFBFFFFFFFFFBFBFFFFFFFFFFF10
:1020A000FF77BEFFFF251D150C0C030201251D1532
:1020B0000C040B0201261D150C0B0301002D1D1530
:1020C0000B020101012E25140C0A0101002D251D12
:1020D0000B0A0A010176251C140B0A0901FFB61D23
:1020E000140B0A0A01000109131C6DFFFF0000090F
:1020F00009131C25B70000000909131B2400000068
:102100000001090A13000000000000090900000096
:1021100000000000000000000000000000000000BF
:102120000000000000FFFFFFFFFFFFFFBFFFFFFFFA
:10213000FFFFFFFFFF6EFFFFFFFFFFFFFF1C24AE4F
:10214000FFFFFFFFFF0A131C256EB6BFFF09091230
:10215000131C2524250000090A120A12120000008F
:102160000001000009BF7F7E777677BFBFFFFFFFCA
:10217000FFFFFFFFFFFFFFFFFFFFFFFFFFFFFFFF6F
:10218000FFFFFFFFFFFFFFFFFFFFB7B66E252565CF
:10219000252525251D131C1C1C1C1C1B1C090A0A9B
:1021A000120A120A12FFFFFFFFFFFFFFFFFFFFFFF0
:1021B000FFFFFFFFFFFFFFFFFFFFFFFFFFFFFFFF2F
:1021C000FFFFFFFFFF2DF7FFFFFFFFFFFF256EFF64
:1021D000FFFFFFFFFF1C25FFFFFFFFFFFF131CAEEC
:1021E000FFFFFFFFFF6D25252425241C136D1C1BFD
:1021F000131B131212651C130A090901096E1C1224
:102200000900000000B61C130900000000B61D1BE9
:102210000A01000000B6251C0A09000000F7251C71
:1022200012090000001B1B1C2D2D76FFFF0A131B3B
:102230001D2D6EFFFF0909121C252DFFFF01090A44
:10224000132525B7FF000109131C25BFFF00000956
:10225000121C25B6FF000001121B25B7FF00000964
:102260000A1325B6FFFFFFFFFFFFFFFFFFFFFFFF82
:10227000FFFFFFFFFFFFFFFFFFFFFFFFFFFFFFFF6E
:10228000FFFFFFFFFFFFFFFFFFFFFFFFFFFFFFFF5E
:10229000FFFFFFFFFFFFFFFFFFFFFFFFFFFFFFFF4E
:1022A000FFB676BFFFFFFFFFFFFFFFFFFFFFFFFF50
:1022B000FFFFFFFFFFFFFFFFFFFFFFFFFFFFFFFF2E
:1022C000FFFFFFFFFFFFFFFFFFFFFFFFFFFFFFFF1E
:1022D000FFFFFFFFFFFFFFFFFFFFFFFFBFFFFFFF4E
:1022E000B7B66E6525FFFFFFFFFFFFFFFFFFFFFF94
:1022F000FFFFFFFFFFFFFFFFFFFFFFFFFFFFFFFFEE
:10230000FFFFFFFFFFFFFFFFFFFFFFFFFFFFFFFFDD
:10231000FFFFFFFFFFB66E6E2D2E76FFFF1D2525FA
:10232000252525BFFFFFFFFFFF7E36FFFFFFFFFFD5
:10233000FF3636FFFFFFFFFFFF2E2E76FFFFFFFF6A
:10234000B72D252EFFFFFFFF76252525B6FFFFFFC2
:102350006E251C2565FFFFFF2D1C1C1B1CFFFFBFEE
:10236000251C13120AFFFFAE1C130B0A01FFFFFF0F
:10237000AE14130A09FFFFFFB614130A01FFB6FFDC
:10238000B61C130A01B725251D14120900B6251D18
:102390001C130A09011C1C1C130A09000013131248
:1023A0000A090100000108090909010909000000E2
:1023B000000000000000000000000000000000001D
:1023C000000000000000000000000000000000000D
:1023D00000000000000000000000000000000000FD
:1023E00000000000000A1B25FFFFFFFFFF090A1B7A
:1023F000AEFFFFFFFF0009131CFFFFFFFF00010AF4
:102400001B6EFFFFFF000809131CF7FFFF00000908
:10241000131C6DFFFF000009121C25FFFF000009BF
:102420000A1C1DB6FFFF251C1309000000FF6D1CD0
:102430001309000000FF6E1C1309010000FFB61D08
:102440001B0A000000FFFF25130A080000FFFF65BC
:102450001B0A010000FFFFB61C12090000FFFFF776
:102460001C12090000000001091B1CB7FF00000836
:102470000A1324FFFF000001091325FFFF000008D5
:102480000A1365FFFF0000090A1B65FFFF00010931
:10249000121C6EFFFF000009131CB6FFFF00090AA3
:1024A000131CFFFFFFFFFFFFFF2E252565FFFFFF2A
:1024B000B7241C1B13FFFFFFB61C131212FFFFFFF4
:1024C00065130A0909FFFFFF1C12090100FFFFFF46
:1024D0001B0A090000FFFFB61B0A090000FFFFAE40
:1024E0001C0A0900002565251C1C1C1C1C13131349
:1024F0001313131313090A09090A090A0901090028
:1025000009010801080000000000000000000000B0
:1025100000000000000000000000000000000000BB
:1025200000000000001C1C1C1D2525B6FF13131BFA
:102530001C1C256EFF090A121B1C2525FF01090919
:10254000131C1D25FF0000090A132425B6000001F5
:1025500009131C256E00000009121C1D6D000000EF
:10256000090A1B1C25FFFFB6251B090909FFFF7679
:102570001C12090100FFFF2D1C0A090000FF76252F
:102580001309000000FF6E1C1209000000BF251B8C
:102590000A09000000B6251B0900000000761C1384
:1025A000090100000009090100000000000000000E
:1025B000000000000000000000000000000000001B
:1025C000000000000000000000000000000000000B
:1025D00000000000000000000000000000000000FB
:1025E00000000000000000010A1B1C6EFF0000003C
:1025F00009131C6EFF00000009131C6DFF00000092
:10260000090A1B1DFF0000000009121C65000000E4
:102610000001091213000000000001090A00000077
:102620000000000009FFFFFF6513090000FFFFFF26
:102630006E13090100FFFFFFB613090000FFFFFF43
:10264000B613090100FFFFFFB6120900001C6DAEB2
:102650005B0900000012120A0901000000090909C3
:1026600001000000000001121B25FFFFFF00080A07
:102670001365FFFFFF00010A1C6DFFFFFF00080A42
:102680001B6EFFFFFF00011213B6FFFFFF00090AD8
:102690001CB6FFFFFF0001121BF7FFFFFF0009132D
:1026A00024FFFFFFFFFFFFB61C12090000FFFFF72A
:1026B0001C13090100FFFFFF24130A0900FFFFFF9D
:1026C000651C120900FFFFFF6E1C130901FFFFFFCD
:1026D000B61C131209FFFFFFFF251C1209FFFFFFA5
:1026E000FF651C130A00000000000000000000004D
:1026F00000000000000000000000000000000000DA
:1027000000000000000000000000000000000000C9
:1027100000000000000000000000000000090000B0
:102720000000000000000000090A131D2500000041
:10273000090A1B1C6D00000009121C1CB7000001D7
:1027400009121CAEFF0000090A1365FFFF00000913
:10275000121CB6FFFF000009121CFFFFFF00010959
:10276000131CFFFFFFF7FFFFFFFFFFFFFFFFFFFF50
:10277000FFFFFFFFFFFFFFFFFFFFFFFFFFFFFFFF69
:10278000FFFFFFFFFFFFFFFFFFFFFFFFFFFFFFFF59
:10279000FFFFFFFFFFFFFFFFFFFFFFFFFFFFFFFF49
:1027A000FFFFFFFFFF6E241209000000006E1C13E4
:1027B00009000000006E1C130901000000B624137C
:1027C0000A08000000B71C1B0A09000000FF251CB6
:1027D0001209000000FF6D1C1309010000FFB61C68
:1027E000130A09000000091265FFFFFFFF0009132B
:1027F00025B6BFFFFF00091324256EFFFF00091B4C
:102800001C25B6FFFF0009131C25FFFFFF0009135D
:102810001B6EFFFFFF000912136DFFFFFF00090A87
:10282000131B656465FFFFFFFFFFFFFFFFFFFFFF57
:10283000FFFFFFFFFFFFFFFFFFFFFFFFFFFFFFFFA8
:10284000FFFFFFFFFFFFFFFFFFFFFFFFFFFFFFFF98
:10285000FFFFFFFFFFFFFFFFFFFFFFFFFF656D6D46
:102860006D6D656DAEFFFFFFFF6E1C1B0AFFFFFF66
:10287000FFB6251C12FFFFFFFFF7251C13FFFFFF0C
:10288000FFFF6D1C13FFFFFFFFFF6E1C12FFFFFF1A
:10289000FFFF6D130AFFFFFFFFFF1C13096E6EAEF3
:1028A000651C13090909000000000000000901006F
:1028B00000000000000900000000000000090900FD
:1028C00000000000000900000000000000090000F6
:1028D00000000000000100000000000000000000F7
:1028E0000000000000000009121C65B7FF0000098D
:1028F0000A1B1C252500000109131C1C25000000D3
:10290000090A121B1C0000000009090A130000003C
:10291000000001090A0000000000000001000000A2
:102920000000000000FFFFFFFFFFFFFFFFB6FFFFFB
:10293000FFFFFFFFFFB6FFFFFFFFFFFFFFB7FFFF38
:10294000FFFFFFFFFF64F6FFFFFFFFFFFF12135CB7
:1029500065AD6E6D6E09090A1213131B1C00000988
:1029600009090A0A12FFFFFFFFFFFFFFFFFFFFFF3A
:10297000FFFFFFFFFFFFFFFFFFFFFFFFFFFFFFFF67
:10298000FFFFFFFFFFFFFFFFFFFFFFFFFF6E7676FA
:10299000B6B7B6B7B61C2525252D25252413131B40
:1029A0001C1B1B1B13FFFF251B0A090000FFFFAEAA
:1029B0001C12010000FFFFB61C12090000FFFFFF00
:1029C0005C0A090000FFFF6E1B0A0900006E251B50
:1029D00013090000001C1313090901000013120958
:1029E0000900000000000109121313131300000175
:1029F0000909091212000000000000010000000097
:102A000000000000000000000000000000000000C6
:102A100000000000000000000000000000000000B6
:102A200000000000001313131313131C130A120ADF
:102A30000A120A1212090108090009010100000026
:102A40000000000000000000000000000000000086
:102A50000000000000000000000000000000000076
:102A600000000000001B1B1313120909000A0A12C0
:102A70000909010000090900010000000000000030
:102A80000000000000000000000000000000000046
:102A90000000000000000000000000000000000036
:102AA000000000000000000000010809090000000B
:102AB0000000000000000000000000000000000016
:102AC0000000000000000000000000000000000006
:102AD00000000000000000000000000000000000F6
:102AE000000000000009090A0A0A0A0A090108018F
:102AF00008090801090000000000000000000000B3
:102B000000000000000000000000000000000000C5
:102B100000000000000000000000000000000000B5
:102B20000000000000000000000000000000A4FF02
:102B3000FFFFF609490064FF4900F6B60000A4FF54
:102B40005B00FFF60900A4FFADFFFF5B000064FF20
:102B5000FFFFFF5B0900A4FF495BFFF6090064FF6C
:102B60005200A4FF5B0000000000000000FFAD0069
:102B70000000000000FFAD000000000000FFAD00FD
:102B80000000000000FFAD49FFFFFF5B00FFAD004C
:102B90000900A4FF00FFAD49ADFFFFFF00FFADA49A
:102BA000FF00A4FF0900000000000000000000007A
:102BB0000000ADFF000000000000ADF609000000BD
:102BC0000000000000FFFFFFFF52ADFF090000FF03
:102BD000FF09ADFF0000ADFF5B00ADFF0052FFB687
:102BE0000000ADFF00000000000000000000000039
:102BF00000000000000000000000000000000000D5
:102C00000000000000F6B6F6FFAD0009F6ADFF6467
:102C1000ADFF5BADB6ADED0000FFADADF6ADB600FE
:102C200009FFAD49FF0000000000000000000000A7
:102C30000000000000000000000000000000000094
:102C40000000000000FFFFFF5B0000000000ADF689
:102C5000000000000000ADF60000000000FFF609D3
:102C6000000000000000000000000000000000A4C0
:102C700064000000000009ADFF490000520000A4FC
:102C8000FFB60000B60000A4FFFFA4A4FF0000648C
:102C9000FFB6FFFFAD0000A4FF52B6B6520000A47D
:102CA000FF520949520000000000000000A4640027
:102CB0000000000000FFF6090000000000FF5B00BC
:102CC0000000000000FF5B00FFFFFFAD00FF9B0066
:102CD00052005BFF52FF5B00ADFFFFFF52FF9B5BAB
:102CE000FF5252FF520000000000000000000000F0
:102CF00000000000000000000000000000000000D4
:102D00000000000000B6F6FFFFADFFFF5BB6FF005E
:102D1000ADFF00A4FFF6AD00A4FF5252FFADB60018
:102D200064FF495BFF00000000000000000000009D
:102D30000000000000000000000000000000000093
:102D4000000000000000B6F6FFFFADFFFF49B6FF30
:102D500000ADFF00A45BF6AD00A4FF52525BADB620
:102D60000064FF095B00000000000000000000009C
:102D70000000000000000000000000000000000053
:102D800000000000005B0049B6FFFF5252FF49B649
:102D9000F600ADFF00FF5BFF5B0052FF5BFF5BFFD8
:102DA0005B0052FF5B00000000000000000000001C
:102DB00000FFAD000049AD0900F6AD0000A4FF0022
:102DC00000FFAD0000FFFFFF52FFB6FFFFADFF09A0
:102DD00000F6F6A4ADADFF0009FFAD005BA4FF094E
:102DE00000FFAD00520000000000000000000000E5
:102DF00000000000000000000000000000000000D3
:102E000000000000005B00000000000049FF4900D6
:102E10000000000009FF5B000000000000FF5B00F5
:102E200000000000000000000000000000005BFF48
:102E3000FFFFAD0000A4FF5B0000520000FFF600A2
:102E40000000000000FFAD000000000049FFF60098
:102E5000A4FFFF5B09B6FF5252A4FF5B4952FFF685
:102E60000912FF5BA4000000000000000000000049
:102E70000000000000000000000000000000000052
:102E80000000000000FFFFFF5B09FFFFFF0900A437
:102E9000FF00FFAD00ADFFFFFF00FFA400FF00A497
:102EA000FF09FF64000000000000000000000000B7
:102EB0000000000000000000000000000000000012
:102EC0000000000000F6ADFFF6090052F6F6B6006D
:102ED000B6F600FFADB6F600A4FF5BFFFFADFF0046
:102EE000A4FF5BFFA4000000000000000000000041
:102EF00000000000000000000000000000000000D2
:102F00000000000000FFB64900ADFFFF5200F6A42C
:102F10005BFF5B5B49FFFFB652FFFFAD00000000A7
:102F20000052F6FFAD00A4FF0900ADFF5200A4FF60
:102F3000FFFFF65B09000000000000000000000039
:102F40000000000000000000000000000000000081
:102F50000000000000000000000000000000000071
:102F60000000000000FFA4ADFFA4FFFF00FFAD497B
:102F7000FFFFADFF52000000000000000000000055
:102F80000000000000000000000000000000000041
:102F90000000000000000000000000000000000031
:102FA0000000000000F6FF490000ADFF09FFFFFF31
:102FB000FF5BADFF490000000000000000000000C2
:102FC0000000000000000000000000000000000001
:102FD00000000000000000000000000000000000F1
:102FE0000000000000ADED0052FF5B00FFADFF00F0
:102FF000ADFF49A4FF00005BFFA400000900009B97
:10300000B60000005B00000000000000A40000000B
:1030100000000000000000000000000000000000B0
:103020000000000000ADA45B0000000000FFFFFFF7
:103030005B000000000052FF9B00000000A4F6FFB0
:103040000900000000FF6400000000000000000014
:103050000000000000000000000000000000000070
:103060000000000000000064FF520000520000A4B5
:10307000FF5B00005B00000000000000000000009B
:103080000000000000000000000000000000000040
:103090000000000000000000000000000000000030
:1030A0000000000000FF5B5BFFADF6FF52FFA409CC
:1030B000ADFFADFF5B00000000000000000000005D
:1030C0000000000000000000000000000000000000
:1030D00000000000000000000000000000000000F0
:1030E0000000000000F6B600A4FF00A4FF5B9B00F8
:1030F0005BA409FFB60000000000ADFF5200000015
:103100000009A4A40000000000000000000000006E
:1031100000000000000000000000000000000000AF
:10312000000000000052F6AD00A4FF00A4005B9B6D
:10313000005BA449FF000000000000ADFF0000009C
:10314000000009A4A400000000000000000000002E
:10315000000000000000000000000000000000006F
:103160000000000000FF52F6B600A4FF00B60049C0
:10317000B6FFF65200520000000000000000000000
:10318000000000000000000000000000000000003F
:10319000000000000000000000000000000000002F
:1031A00000000000009BFFA452FFAD005B09F6FF8A
:1031B0005BFFAD00F6000000090009ADFF00000054
:1031C000000000A4A40000000000000000000000B7
:1031D00000000000000000000000000000000000EF
:1031E0000000000000FF52000000000000F6000098
:1031F00000000000005B0000000000000000000074
:1032000000000000000000000000000000000000BE
:1032100000000000000000000000000000000000AE
:103220000000000000005BFFFFADFF9BAD000052FF
:10323000ADFFFF6449000000000000000000000036
:10324000000000000000000000000000000000007E
:10325000000000000000000000000000000000006E
:103260000000000000FFA4FFFF00FFA400FFFFAD6F
:10327000FF09A45B00000000000000000000000047
:10328000000000000000000000000000000000003E
:10329000000000000000000000000000000000002E
:1032A0000000000000F6B600F6FF00F6B65BA45280
:1032B000FF640049B60000B6FF000000000052ADF8
:1032C00052000000000000000000000000000000AC
:1032D00000000000000000000000000000000000EE
:1032E00000000000000009A45B0000FFADFFFFA488
:1032F000A4FFFFB64900000000000000000000002D
:1033000000000000000000000000000000000000BD
:1033100000000000000000000000000000000000AD
:1033200000000000001E1C00000000000000000063
:10333000000000000000000000000000000000008D
:10334000000000000000000000000000000000007D
:10335000000000000000000000000000000000006D
:10336000000000000000000000000000000000005D
:103370000102030405060708090A0B0C00000000FF
:1033800000000000000000000000000000000D0E22
:103390000F1011121314151617180000000000006A
:1033A000000000000000000000000000000000001D
:1033B0000000000000000000000000000000191ADA
:1033C0001A1A1A1A1A1A1B1C1D1D1D1D1D1D1D1D42
:1033D0001D1D1D1D1D1D1D1D1E0000001F20212265
:1033E00023242520262728292A2B2C2D2E2F303147
:1033F000323334353636370000001F383838383825
:1034000038382627393A3B3C3D3E3F404142434411
:1034100045463636370000001F47484922232425F9
:1034200026274A4B4C4D4E4F5051525354555657E8
:103430003636370000001F383838383838382627F5
:1034400058595A5B5C5D5E5F6061626364653636E5
:10345000370000001F206625672568202627696A37
:103460006B6C6D6E6F70717238363636363637006B
:1034700000001F3838383838383826277374757686
:103480007778797A7B7C7D363636363637000000A1
:103490007E7F7F7F7F7F7F7F802781828282828283
:1034A0008282828336363636363637000000000098
:1034B00000000000000000278485868788898A8BA9
:1034C000858C3636363636363700000000008D8E55
:1034D0001A8F900000278485859191919185858C24
:1034E000363636363636370000000092939495967D
:1034F0009798002784999A8A89889B8A858C363682
:1035000036363636370000009C9D95959595959EEC
:103510009F27848585A088A1A285858C363636367E
:10352000363637000000A3A49595959595A5A62756
:10353000A7A8A8A8A8A8A8A8A8A9363636363636B7
:10354000370000001F959595959595952627363659
:103550003636363636363636363636363636370040
:103560000000AAAB9595959595ACAD2736363636C5
:10357000363636363636363636363636370000008C
:10358000AEAF9595959595B0B12736363636363629
:10359000363636363636363636363700000000B226
:1035A000B3B495B5B6B70027B8B9BABBBCBDBEBFFA
:1035B000C036363636363636370000000000C1C217
:1035C0007FC3C40000C5C6C6C6C6C6C6C6C6C6C674
:1035D000C6C6C6C6C6C6C700000000000000000080
:1035E000000000C8B8B8B8B8B8B8B8B8B8B8B8B873
:1035F000B8B8B8B8C9000081828282828282828291
:10360000838182828282828282828282830000001F
:10361000000000000084CA8ACB8ACC85CDCE8C8481
:10362000CF879B8A85D0CB8AD1D28C000000000046
:1036300000000084D39A8A89889B8AD48C84D2D54E
:10364000D6859BD6CB8A89D28C0000000000000072
:1036500000A7A8A8A8A8A8A8A8A8A9A7A8A8A8A893
:10366000A8A8A8A8A8A8A900000000000000000BB6
:1036700001696A6B6C6D6E6F707172380B017374D7
:1036800075767778797A7B7C7D0101950901B8B9E7
:10369000BABBBCBDBEBFC00A068182828282828262
:1036A0008282838485868788898A8B858C848585B8
:1036B0009191919185858C84999A8A89889B8A8534
:1036C0008C848585A088A1A285858CA7A8A8A8A898
:1036D000A8A8A8A8A90101850101990A04818282EC
:1036E0008282828282828384CA8ACB8ACC85CDCE32
:1036F0008C84D39A8A89889B8AD48CA7A8A8A8A8E6
:10370000A8A8A8A8A90C04818282828282828282CF
:1037100082828384CF879B8A85D0CB8AD1D28C84C6
:10372000D2D5D6859BD6CB8A89D28CA7A8A8A8A8A3
:10373000A8A8A8A8A8A8A902022829393A02022AFA
:103740002B3B3C02022C2D3D3E02022E2F3F40021D
:1037500002303141420202323343440202343545E1
:103760004602023636363602024A4B585902024C9D
:103770004D5A5B02024E4F5C5D020250515E5F0289
:10378000025253606102025455626302025657644A
:103790006540404040404040404040404040404004
:1037A0004040404040404040404040404040404019
:1037B0004040404040404040404040404040404009
:1037C00040404040404040404040404040404040F9
:1037D00040404040404040404040404040404F4FCB
:1037E0004F404040404F4F4F4F4040404F4F404070
:1037F0004040404F404040404040404040404040BA
:1038000040404040404040404F40404040404040A9
:103810004F4F4F4F4F4F4040404F4F4F4F4F4F4FE5
:10382000404F4F4F4F4F4F4F4F404F4F404F4F4FD5
:103830004F404F4040404F4F4F4F4040404F4F4F01
:10384000404040404F4F4F4040404F4F4F4F40400F
:103850004040404040404040404040404040404068
:103860004040404040404040404040404040404058
:103870004040404F4F404F4F4F404F4F4F404F4FB2
:103880004F404F4F4F404F4F4F404F4F4F404F4F84
:103890004F40404F4F40404040404F4F4F404040CE
:1038A00040404F4F4F40404040404F4F4F404040BE
:1038B00040404F4F4F404F4F4F404F4F4F4F4F4F54
:1038C0004F404F4F4F4F4F4F4F404F4F4F40404F44
:1038D0004F404040404040404040404040404040D9
:1038E00040404040404040404040404040404040D8
:1038F00040404F4F4F404F4F4F4F4F4F4F404F4F14
:103900004F4F4F4F4F404F4F4F4F4F4F4F4F4F4FD6
:103910004F40404040404040404040404040404098
:103920004040404040404040404040404040404097
:103930004040404040404040404040404040404087
:103940004040404040404040404040404040404077
:103950004F404040404040404F404040404F4F4F1C
:103960004F4040404F4F4F4F4F40404F4F404040DF
:1039700040404F4040404040404F4F40404040401A
:10398000404F404040404040404F40404040404019
:10399000404F4F4F4F404040404F4F4F4F404040AF
:1039A000404F4F4F4F40404040404F4F4F404040AE
:1039B0004040404F4040404F4F40404F4040404FBC
:1039C0004F4040404040404F4F4040404040404FBB
:1039D0004F404040404040404040404040404040D8
:1039E00040404040404040404040404040404040D7
:1039F000404F404F4F40404F4F4F4F4F4F404F4F22
:103A00004F4F404F40404F4F4F4F404040404F4F2F
:103A10004F40404040404040404040404040404097
:103A20004040404040404040404040404040404096
:103A300040404F4F4F4040404F404F4F4F40404F0E
:103A40004F404F4F4F404F4F4F404F4F4F404F4FC2
:103A50004F404040404040404F4040404040404F39
:103A60004F4040404040404F4F4040404040404F1A
:103A70004F4F4F4F4F40404F4F4F4F4F4F40404F92
:103A80004F4040404040404F4F4F4F4F4F4F404FAF
:103A90004F4F404040404040404F404040404040F9
:103AA000404F404040404040404F404040404040F8
:103AB000404F404F4F404040404F4F4F4F4F4F407F
:103AC000404F40404F4F4F40404F40404F4F4F407E
:103AD000404040404040404F4F40404040404F4FAA
:103AE0004F40404040404F4F4F404F40404F404F6D
:103AF0004F4F4F4F4F4040404F404F4F404040404E
:103B000040404040404040404040404040404040B5
:103B1000404F4F4040404040404F40404040404078
:103B2000404F4F4040404040404F4F4F404040404A
:103B3000404F4F4F4F40404040404F4F404040402B
:103B40004040404F40404040404040404040404066
:103B500040404F4F4F404F4F4F404F4F4F404F4FC0
:103B60004F40404F4F4F4F4F4F40404040404040EC
:103B70004040404040404040404040404040404045
:103B80004040404040404040404040404040404035
:103B900040404F4F4F40404F4F404F4F4F4F4F4F80
:103BA0004F404F4F4F404F4F40404F4040404040AC
:103BB0004040404040404040404040404040404005
:103BC00040404040404040404040404040404040F5
:103BD000404F4F4F4F4F4F4F4F404F4F4F404F4F22
:103BE0004F404F4F40404F4F4F404F4040404F4F4E
:103BF0004F404F4F40404F4F404F4F4F4F4F4F4020
:103C0000404040404F4F4F40404040404040404087
:103C100040404040404040404F4040404040404095
:103C20004F404040404040404F4040404040404076
:103C30004F40404040404040404040404040404075
:103C40004040404040404040404040404040404074
:103C5000404F404040404040404F4F404040404037
:103C6000404F4F4F40404040404F4F4F4F4F4F4FBE
:103C7000404F4F4F4F4F4F4F4F404F4F4F4F4F4F72
:103C80004F4040404F4F4F4F4F40404040404040DA
:103C9000404040404040404F4F4040404040404FF7
:103CA0004F404040404040404F40404040404040F6
:103CB000404F4F4F4F4F4F40404F4F4F4F4F40405F
:103CC000404F4F4F404040404040404040404040C7
:103CD000404F404040404F4F4F4F4F4040404F4F6C
:103CE0004F4F4F404040404F4F4040404040404089
:103CF00040404040404040404040404040404040C4
:103D000040404040404040404040404040404040B3
:103D100040404F4F4F40404F4F404F4F4F404F401C
:103D2000404F4F4F4F40404F4F4040404040404039
:103D30004040404040404040404040404040404083
:103D40004040404040404040404040404040404073
:103D5000404F4F4F4F4F404F4F40404F4F4F404FBE
:103D60004F4F4F4F4040404F4F40404040404040F9
:103D70004040404040404040404040404040404043
:103D80004040404040404040404040404040404033
:103D9000404F40404F4F4F40404F40404F4F4F40AB
:103DA000404F40404F4F4F40404040404F4F4040B9
:103DB0004040404F404040404040404040404040F4
:103DC00040404040404040404040404040404040F3
:103DD00040404040404040404040404040404040E3
:103DE00040404040404040404040404040404040D3
:103DF00040404040404040E1E14040404040E1E13F
:103E0000E140404040E1E1E1E140404040E1E1E1AA
:103E1000E140404040404040404040404040404001
:103E20004040404040404040404040404040404092
:103E300040E1E1E1E1E1E1E1E1E1E1E1E1E1E1E113
:103E4000E1E1E1E1E1E1E1E1E1E1E1E1E1E1E1E162
:103E5000E1404040404040404040404040404040C1
:103E60004040404040404040404040404040404052
:103E700040E1E1404040404040E1E1E1404040401D
:103E800040E1E1E1E140404040E1E1E1E14040402A
:103E90004040404040404040404040404040404022
:103EA0004040404040404040404040404040404012
:103EB0004040404040404037374040404040373726
:103EC000374040404037373737404040403737373A
:103ED00037404040404040404040404040404040EB
:103EE00040404040404040404040404040404040D2
:103EF0004037373737373737373737373737373749
:103F00003737373737373737373737373737373741
:103F100037404040404040404040404040404040AA
:103F20004040404040404040404040404040404091
:103F300040373740404040404037373740404040AE
:103F400040373737374040404037373737404040B9
:103F50004040404040E1E1E1E140404040E1E1E1FA
:103F6000E140404040E1E1E1E140404040E1E1E149
:103F7000E140404040E1E1E1E140404040E1E1E139
:103F8000E140404040E1E1E1E140404040E1E1E129
:103F9000E1919191919191919191919191919191C1
:103FA0009191919191919191919191919191919101
:103FB00091919191919191919191919191919191F1
:103FC00091919191919191919191919191919191E1
:103FD0009191919191919191919191FFFFFFFF9119
:103FE0009191FFFF91919191919191FFFFFFFF912D
:103FF000919191919191FFFF919191919191FFFFF9
:10400000919191FFFFFFFF919191919191919191E8
:104010009191919191919191919191919191919190
:10402000919191FFFFFFFF919191FFFF91919191EC
:104030009191FFFF919191919191FFFF91919191B8
:10404000919191FFFFFFFF919191919191919191A8
:104050009191919191919191919191919191919150
:10406000919191FFFFFFFF919191FFFF9191FFFFD0
:104070009191FFFF9191FFFF9191FFFF9191FFFFC0
:10408000919191FFFFFFFF91919191919191919168
:104090009191919191919191919191919191919110
:1040A0009191FFFFFFFFFF919191FFFF9191FFFF22
:1040B0009191FFFF919191919191FFFF9191919138
:1040C0009191FFFF91919191919191919191919104
:1040D00091919191919191919191919191919191D0
:1040E000919191FFFFFFFF919191FFFF9191FFFF50
:1040F0009191FFFFFFFFFFFF9191FFFF9191919140
:10410000919191FFFFFFFF919191919191919191E7
:1041100091E1E1E1E140404040E1E1E1E140404046
:1041200040E1E1E1E140404040E1E1E1E140404087
:1041300040E1E1E1E140404040E1E1E1E140404077
:1041400040E1E1E1E140404040E1E1E1E140404067
:10415000404040404037373737404040403737379E
:104160003740404040373737374040404037373797
:104170003740404040373737374040404037373787
:104180003740404040373737374040404037373777
:10419000370A0A0A0A0A0A0A0A0A0A0A0A0A0A0A52
:1041A0000A0A0A0A0A0A0A00000A0A0A0A0000FFA2
:1041B000FE0A0A0A00FFFFFFFE0A0A0A00FFFFFFCD
:1041C000FE0A0A00FFFFFFFEFE0A0A00FEFEFEFED8
:1041D000FE0A0A0A0A0A0A0A0A0A0A0A0A0A0A0A4B
:1041E0000A00000A0A0A0A0A0AFEFE00000A0A0A6F
:1041F0000AFEFEFEFE000A0A0AFEFEFEFE000A0A93
:104200000AFEFEFEFEFC000A0AFEFEFEFCFC000AA0
:104210000A0A0A0A0A0A0A0A0A0A0A0A0A0A0A0AFE
:104220000A0A0A0A0A0A0A0A000A0A0A0A0A0A0002
:10423000850A0A0A0A0A0A00850A0A0A0A0A008581
:10424000850A0A0A0A0A0085430A0A0A0A008585BD
:10425000430A0A0A0A0A0A0A0A0A0A0A0A0A0A0A85
:104260000A000A0A0A0A0A0A0A85000A0A0A0A0A47
:104270000A85000A0A0A0A0A0A8585000A0A0A0A41
:104280000A4385000A0A0A0A0A438585000A0A0ABF
:104290000A0A0A0A0A0A0A0A0A0A0A0A0A0A0A0A7E
:1042A0000A0A0A0A0A0A0000000A0A0A0A00112A6F
:1042B0002A0A0A0A002A2A112A0A0A00112A2A119D
:1042C0002A0A0A002A111111110A0A002A2A2A119F
:1042D0002A0A0A0A0A0A0A0A0A0A0A0A0A0A0A0A1E
:1042E0000A0000000A0A0A0A0A2A2A11000A0A0A0F
:1042F0000A2A112A2A000A0A0A2A112A2A11000A5D
:104300000A111111112A000A0A2A112A2A2A000A5E
:104310000A0A0A0A0A0A0A0A0A0A0A0A0A0A0A0AFD
:104320000A0A0A0A0A0A0A0A000A0A0A0A0A0A0001
:10433000270A0A0A0A000027270A0A0A002727155F
:10434000270A0A0A00272727150A0A0A002727151D
:10435000270A0A0A0A0A0A0A0A0A0A0A0A0A0A0AA0
:104360000A000A0A0A0A0A0A0A27000A0A0A0A0AA4
:104370000A272700000A0A0A0A27152727000A0A1F
:104380000A15272727000A0A0A27152727000A0ADD
:104390000A0A0A0A0A0A0A0A0A0A0A0A0A0A0A0A7D
:1043A0000A0A0A0A0A0A0A0A000A0A0A0A0A0A0081
:1043B000250A0A0A0A0A0037250A0A0A0A003737B4
:1043C000250A0A0A00373737250A0A002525252538
:1043D000250A0A0A0A0A0A0A0A0A0A0A0A0A0A0A22
:1043E0000A000A0A0A0A0A0A0A37000A0A0A0A0A14
:1043F0000A3737000A0A0A0A0A373737000A0A0A50
:104400000A37373737000A0A0A2537373737000A9D
:104410000A0A0A0A0A0A0A0A0A0A0A0A0A0A0A0AFC
:104420000A0A0A0A0A000000000A0A0A00D0D0405C
:10443000D00A0A00D0D040D0D00A0A004040404004
:10444000400A0A0A00D040D0D00A0A0A00D0D04060
:10445000D00A0A0A0A0A0A0A0A0A0A0A0A0A0A0AF6
:104460000A000000000A0A0A0AD040D0D0000A0A56
:104470000AD0D040D0D0000A0A4040404040000A54
:104480000AD0D040D0000A0A0AD040D0D0000A0A90
:104490000A0A0A0A0A0A0A0A0A0A0A0A0A0A0A0A7C
:1044A0000A0A0A0A00000000000A0A0000070707BB
:1044B000070A0A0007000707070A0A0007070000A3
:1044C000000A0A0007070007070A0A000707000793
:1044D000070A0A0A0A0A0A0A0A0A0A0A0A0A0A0A3F
:1044E0000A00000000000A0A0A0707070700000A7E
:1044F0000A0707070007000A0A0000000707000A6A
:104500000A0707000707000A0A0707000707000A4B
:104510000A0A0A0A0A0A0A0A0A0A0A0A0A0A0A0AFB
:104520000A0A0A0A0A0A0A0A0A0A0A0A0A0A0A0AEB
:104530000A0A0A0A0A0A0A0A0A0A0A0A0A0A0A0ADB
:104540000A0A0A0A0A0A0A0A0A0A0A0A0A0A0A0ACB
:104550000A373737374040404037373737404040D9
:104560004037373737404040403737373740404093
:104570004037373737404040403737373740404083
:104580004037373737404040403737373740404073
:104590004091919191919191919191484848489180
:1045A000919148489191484891914848914848488C
:1045B000919148484891484891914848919148487C
:1045C00091919148484848919191919191919191FF
:1045D000910A0A00FEFEFEFEFE0A0A00FEFEFEFE34
:1045E000FE0A0A0A00FEFEFEFE0A0A0A00FEFEFE9F
:1045F000FC0A0A0A0A0000FCFC0A0A0A0A0A0A0063
:10460000000A0A0A0A0A0A0A0A0A0A0A0A0A0A0A14
:104610000AFEFEFEFCFC000A0AFEFEFCFCFC000A90
:104620000AFEFCFCFC000A0A0AFCFCFCFC000A0A6C
:104630000AFCFC00000A0A0A0A00000A0A0A0A0A1E
:104640000A0A0A0A0A0A0A0A0A0A0A0A0A0A0A0ACA
:104650000A0A0A0A0A008543850A0A0A0085854370
:10466000850A0A0A00854385850A0A008585434331
:10467000430A0A0085858585850A0A000000000036
:10468000000A0A0A0A0A0A0A0A0A0A0A0A0A0A0A94
:104690000A854385000A0A0A0A85438585000A0AB5
:1046A0000A85854385000A0A0A4343438585000A33
:1046B0000A8585858585000A0A0000000000000A39
:1046C0000A0A0A0A0A0A0A0A0A0A0A0A0A0A0A0A4A
:1046D0000A0A0A002A2A2A112A0A0A002A11111192
:1046E000110A0A00112A2A112A0A0A0A002A2A1182
:1046F0002A0A0A0A0A00112A2A0A0A0A0A0A0000D1
:10470000000A0A0A0A0A0A0A0A0A0A0A0A0A0A0A13
:104710000A2A112A2A2A000A0A111111112A000A4A
:104720000A2A112A2A11000A0A2A112A2A000A0A28
:104730000A2A2A11000A0A0A0A0000000A0A0A0ABA
:104740000A0A0A0A0A0A0A0A0A0A0A0A0A0A0A0AC9
:104750000A0A0A0A00272715270A0A0A0027272714
:10476000150A0A0A00272715270A0A0A0A0000273D
:10477000270A0A0A0A0A0A00270A0A0A0A0A0A0A69
:10478000000A0A0A0A0A0A0A0A0A0A0A0A0A0A0A93
:104790000A27152727000A0A0A15272727000A0AC9
:1047A0000A27152727000A0A0A272700000A0A0AEB
:1047B0000A27000A0A0A0A0A0A000A0A0A0A0A0A50
:1047C0000A0A0A0A0A0A0A0A0A0A0A0A0A0A0A0A49
:1047D0000A0A0A0037373737250A0A0A00373737F7
:1047E000370A0A0A0A003737370A0A0A0A0A00375C
:1047F000370A0A0A0A0A0A00370A0A0A0A0A0A0AC9
:10480000000A0A0A0A0A0A0A0A0A0A0A0A0A0A0A12
:104810000A2525252525000A0A25373737000A0AE3
:104820000A253737000A0A0A0A2537000A0A0A0A3F
:104830000A25000A0A0A0A0A0A000A0A0A0A0A0AD1
:104840000A0A0A0A0A0A0A0A0A0A0A0A0A0A0A0AC8
:104850000A0A0A0A0A00D040D00A0A0A0A00D0D07E
:10486000400A0A0A0A0A00D0400A0A0A0A0A00D0C4
:10487000400A0A0A0A0A0A00400A0A0A0A0A0A0A36
:10488000000A0A0A0A0A0A0A0A0A0A0A0A0A0A0A92
:104890000AD040D0000A0A0A0A40D0D0000A0A0A08
:1048A0000A40D0000A0A0A0A0A40D0000A0A0A0A84
:1048B0000A40000A0A0A0A0A0A000A0A0A0A0A0A36
:1048C0000A0A0A0A0A0A0A0A0A0A0A0A0A0A0A0A48
:1048D0000A0A0A0007070007070A0A000707000775
:1048E000070A0A0007070000000A0A000700070776
:1048F000070A0A0000070707070A0A0A0000000063
:10490000000A0A0A0A0A0A0A0A0A0A0A0A0A0A0A11
:104910000A0707000707000A0A0707000707000A37
:104920000A0000000707000A0A0707070007000A35
:104930000A0707070700000A0A00000000000A0A29
:104940000A0A0A0A0A0A0A0A0A0A0A0A0A0A0A0AC7
:104950000A919191919191919191FFFF9191FFFF16
:104960009191FFFF9191FFFF9191FFFFFFFFFFFFEB
:104970009191FFFF9191FFFF9191FFFF9191FFFFB7
:104980009191FFFF9191FFFF91919191919191915F
:10499000919191919191919191919191FFFF91912B
:1049A0009191919191919191919191FFFFFF9191AD
:1049B00091919191FFFF919191919191FFFF91912F
:1049C000919191FFFFFFFF9191919191919191911F
:1049D00091919191919191919191919191919191C7
:1049E000919191FFFFFFFFFF9191FFFF91919191B5
:1049F000919191FFFFFFFF91919191919191FFFF13
:104A00009191FFFFFFFFFF91919191919191919170
:104A1000910A0A0A0A0A0A0A0A0A0A0A0A0A0A0A6F
:104A20000A0A0A0A0A0A0AFEFE0A0A0A0AFEFEFE22
:104A3000FE0A0A0AFEFEFEFEFE0A0A0AFEFEFEFE4E
:104A4000FE0A0AFEFEFEFEFEFE0A0AFEFEFEFEFE56
:104A5000FE0A0A0A0A0A0A0A0A0A0A0A0A0A0A0AC2
:104A60000AFEFE0A0A0A0A0A0AFEFEFEFE0A0A0AEE
:104A70000AFEFEFEFEFE0A0A0AFEFEFEFEFE0A0A0E
:104A80000AFEFEFEFEFEFE0A0AFEFEFEFEFEFE0A16
:104A90000A0A0A0A0A0A0A0A0A0A0A0A0A0A0A0A76
:104AA0000A0A0A0A0A0A0A0AFE0A0A0A0A0A0AFE7E
:104AB000FE0A0A0A0A0A0AFEFE0A0A0A0A0AFEFE92
:104AC000FE0A0A0A0A0AFEFEFE0A0A0A0AFEFEFE9A
:104AD000FE0A0A0A0A0A0A0A0A0A0A0A0A0A0A0A42
:104AE0000AFE0A0A0A0A0A0A0AFEFE0A0A0A0A0A4A
:104AF0000AFEFE0A0A0A0A0A0AFEFEFE0A0A0A0A52
:104B00000AFEFEFE0A0A0A0A0AFEFEFEFE0A0A0A59
:104B10000A0A0A0A0A0A0A0A0A0A0A0A0A0A0A0AF5
:104B20000A0A0A0A0A0AFEFEFE0A0A0A0AFEFEFE2D
:104B3000FE0A0A0AFEFEFEFEFE0A0AFEFEFEFEFE59
:104B4000FE0A0AFEFEFEFEFEFE0A0AFEFEFEFEFE55
:104B5000FE0A0A0A0A0A0A0A0A0A0A0A0A0A0A0AC1
:104B60000AFEFEFE0A0A0A0A0AFEFEFEFE0A0A0AF9
:104B70000AFEFEFEFEFE0A0A0AFEFEFEFEFEFE0A19
:104B80000AFEFEFEFEFEFE0A0AFEFEFEFEFEFE0A15
:104B90000A0A0A0A0A0A0A0A0A0A0A0A0A0A0A0A75
:104BA0000A0A0A0A0A0A0A0AFE0A0A0A0A0A0AFE7D
:104BB000FE0A0A0A0AFEFEFEFE0A0A0AFEFEFEFEC1
:104BC000FE0A0A0AFEFEFEFEFE0A0A0AFEFEFEFEBD
:104BD000FE0A0A0A0A0A0A0A0A0A0A0A0A0A0A0A41
:104BE0000AFE0A0A0A0A0A0A0AFEFE0A0A0A0A0A49
:104BF0000AFEFEFEFE0A0A0A0AFEFEFEFEFE0A0A81
:104C00000AFEFEFEFEFE0A0A0AFEFEFEFEFE0A0A7C
:104C10000A0A0A0A0A0A0A0A0A0A0A0A0A0A0A0AF4
:104C20000A0A0A0A0A0A0A0AFE0A0A0A0A0A0AFEFC
:104C3000FE0A0A0A0A0AFEFEFE0A0A0A0AFEFEFE28
:104C4000FE0A0A0AFEFEFEFEFE0A0AFEFEFEFEFE48
:104C5000FE0A0A0A0A0A0A0A0A0A0A0A0A0A0A0AC0
:104C60000AFE0A0A0A0A0A0A0AFEFE0A0A0A0A0AC8
:104C70000AFEFEFE0A0A0A0A0AFEFEFEFE0A0A0AE8
:104C80000AFEFEFEFEFE0A0A0AFEFEFEFEFEFE0A08
:104C90000A0A0A0A0A0A0A0A0A0A0A0A0A0A0A0A74
:104CA0000A0A0A0A0AFEFEFEFE0A0A0AFEFEFEFEC4
:104CB000FE0A0AFEFEFEFEFEFE0A0AFEFEFEFEFEE4
:104CC000FE0A0A0AFEFEFEFEFE0A0A0AFEFEFEFEBC
:104CD000FE0A0A0A0A0A0A0A0A0A0A0A0A0A0A0A40
:104CE0000AFEFEFEFE0A0A0A0AFEFEFEFEFE0A0A90
:104CF0000AFEFEFEFEFEFE0A0AFEFEFEFEFEFE0AA4
:104D00000AFEFEFEFEFE0A0A0AFEFEFEFEFE0A0A7B
:104D10000A0A0A0A0A0A0A0A0A0A0A0A0A0A0A0AF3
:104D20000A0A0A0AFEFEFEFEFE0A0AFEFEFEFEFE5B
:104D3000FE0A0AFEFEFEFEFEFE0A0AFEFEFEFEFE63
:104D4000FE0A0AFEFEFEFEFEFE0A0AFEFEFEFEFE53
:104D5000FE0A0A0A0A0A0A0A0A0A0A0A0A0A0A0ABF
:104D60000AFEFEFEFEFE0A0A0AFEFEFEFEFEFE0A27
:104D70000AFEFEFEFEFEFE0A0AFEFEFEFEFEFE0A23
:104D80000AFEFEFEFEFEFE0A0AFEFEFEFEFEFE0A13
:104D90000A0A0AFEFEFEFEFEFE0A0AFEFEFEFEFEF7
:104DA000FE0A0A0AFEFEFEFEFE0A0A0AFEFEFEFEDB
:104DB000FE0A0A0A0AFEFEFEFE0A0A0A0A0A0AFE9B
:104DC000FE0A0A0A0A0A0A0A0A0A0A0A0A0A0A0A4F
:104DD0000AFEFEFEFEFEFE0A0AFEFEFEFEFEFE0AC3
:104DE0000AFEFEFEFEFE0A0A0AFEFEFEFEFE0A0A9B
:104DF0000AFEFEFEFE0A0A0A0AFEFE0A0A0A0A0A5B
:104E00000A0A0A0A0A0A0A0A0A0A0A0A0A0A0A0A02
:104E10000A0A0A0A0AFEFEFEFE0A0A0AFEFEFEFE52
:104E2000FE0A0A0AFEFEFEFEFE0A0AFEFEFEFEFE66
:104E3000FE0A0AFEFEFEFEFEFE0A0AFEFEFEFEFE62
:104E4000FE0A0A0A0A0A0A0A0A0A0A0A0A0A0A0ACE
:104E50000AFEFEFEFE0A0A0A0AFEFEFEFEFE0A0A1E
:104E60000AFEFEFEFEFE0A0A0AFEFEFEFEFEFE0A26
:104E70000AFEFEFEFEFEFE0A0AFEFEFEFEFEFE0A22
:104E80000A0A0A0A0A0A0A0A0A0A0A0A0A0A0A0A82
:104E90000A0A0AFEFEFEFEFEFE0A0AFEFEFEFEFEF6
:104EA000FE0A0AFEFEFEFEFEFE0A0A0AFEFEFEFEE6
:104EB000FE0A0A0A0AFEFEFEFE0A0A0A0A0AFEFEA6
:104EC000FE0A0A0A0A0A0A0A0A0A0A0A0A0A0A0A4E
:104ED0000AFEFEFEFEFEFE0A0AFEFEFEFEFEFE0AC2
:104EE0000AFEFEFEFEFEFE0A0AFEFEFEFEFE0A0AA6
:104EF0000AFEFEFEFE0A0A0A0AFEFEFE0A0A0A0A66
:104F00000A0A0A0A0A0A0A0A0A0A0A0A0A0A0A0A01
:104F10000A0A0A0AFEFEFEFEFE0A0A0AFEFEFEFE5D
:104F2000FE0A0A0AFEFEFEFEFE0A0A0A0AFEFEFE4D
:104F3000FE0A0A0A0A0A0AFEFE0A0A0A0A0A0A0AF5
:104F4000FE0A0A0A0A0A0A0A0A0A0A0A0A0A0A0ACD
:104F50000AFEFEFEFEFE0A0A0AFEFEFEFEFE0A0A29
:104F60000AFEFEFEFEFE0A0A0AFEFEFEFE0A0A0A0D
:104F70000AFEFE0A0A0A0A0A0AFE0A0A0A0A0A0AB5
:104F80000A0A0A0A0A0A0A0A0A0A0A0A0A0A0A0A81
:104F90000A0A0AFEFEFEFEFEFE0A0A0AFEFEFEFEE9
:104FA000FE0A0A0A0AFEFEFEFE0A0A0A0A0AFEFEB5
:104FB000FE0A0A0A0A0A0AFEFE0A0A0A0A0A0A0A75
:104FC000FE0A0A0A0A0A0A0A0A0A0A0A0A0A0A0A4D
:104FD0000AFEFEFEFEFEFE0A0AFEFEFEFEFE0A0AB5
:104FE0000AFEFEFEFE0A0A0A0AFEFEFE0A0A0A0A75
:104FF0000AFEFE0A0A0A0A0A0AFE0A0A0A0A0A0A35
:105000000A0A0A0A0A0A0A0A0A0A0A0A0A0A0A0A00
:105010000A0A0A0A0AFEFEFEFE0A0A0A0AFEFEFE44
:10502000FE0A0A0A0A0AFEFEFE0A0A0A0A0AFEFE28
:10503000FE0A0A0A0A0A0AFEFE0A0A0A0A0A0A0AF4
:10504000FE0A0A0A0A0A0A0A0A0A0A0A0A0A0A0ACC
:105050000AFEFEFEFE0A0A0A0AFEFEFEFE0A0A0A10
:105060000AFEFEFE0A0A0A0A0AFEFEFE0A0A0A0AE8
:105070000AFEFE0A0A0A0A0A0AFE0A0A0A0A0A0AB4
:105080000A0A0A0A0A0A0A0A0A0A0A0A0A0A0A0A80
:105090000A0A0AFEFEFEFEFEFE0A0AFEFEFEFEFEF4
:1050A000FE0A0AFEFEFEFEFEFE0A0AFEFEFEFEFEF0
:1050B000FE0A0AFEFEFEFEFEFE0A0A0AFEFEFEFED4
:1050C000FE0A0A0A0A0A0A0A0A0A0A0A0A0A0A0A4C
:1050D0000AFEFEFEFEFEFE0A0AFEFEFEFEFEFE0AC0
:1050E0000AFEFEFEFEFEFE0A0AFEFEFEFEFEFE0AB0
:1050F0000AFEFEFEFEFEFE0A0AFEFEFEFEFE0A0A94
:105100000A0A0A0A0A0A0A0A0A0A0A0A0A0A0A0AFF
:105110000A919191919191919191FFFF919191912A
:105120009191FFFF919191919191FFFF91919191B7
:105130009191FFFF919191919191FFFF91919191A7
:105140009191FFFFFFFFFFFF9191919191919191BB
:10515000919191919191919191919191919191913F
:105160009191FFFF9191FFFF9191FFFF9191FFFFBF
:105170009191FFFF9191FFFF919191FFFFFFFF91AF
:1051800091919191FFFF9191919191919191919133
:105190009191919191919191919191FFFFFF9191B5
:1051A00091919191FFFF919191919191FFFF919137
:1051B00091919191FFFF919191919191FFFF919127
:1051C000919191FFFFFFFF91919191919191919117
:1051D0009191919191919191919191FFFFFFFF9107
:1051E0009191FFFF9191FFFF9191FFFF91FFFFFFD1
:1051F0009191FFFFFF91FFFF9191FFFF9191FFFFC1
:10520000919191FFFFFFFF919191919191919191D6
:10521000919191919191919191919191FFFF9191A2
:10522000919191FFFFFF919191919191FFFF919148
:1052300091919191FFFF919191919191FFFF9191A6
:105240009191FFFFFFFFFFFF9191919191919191BA
:105250009191919191919191919191FFFFFFFF9186
:105260009191FFFF9191FFFF9191919191FFFF919A
:1052700091919191FFFF9191919191FFFF91919166
:105280009191FFFFFFFFFFFF91919191919191917A
:1052900091919191919191919191FFFFFFFFFFFF6A
:1052A0009191919191FFFF9191919191FFFF919136
:1052B0009191919191FFFF919191FFFF9191FFFF4A
:1052C000919191FFFFFFFF91919191919191919116
:1052D00091919191919191919191919191FFFF91E2
:1052E00091919191FFFFFF91919191FFFFFFFF91AC
:1052F0009191FFFF91FFFF919191FFFFFFFFFFFF52
:105300009191919191FFFF919191919191919191B1
:1053100091919191919191919191FFFFFFFFFFFFE9
:105320009191FFFF919191919191FFFFFFFFFF916B
:10533000919191919191FFFF9191FFFF9191FFFFC9
:10534000919191FFFFFFFF91919191919191919195
:105350009191919191919191919191FFFFFFFF9185
:105360009191FFFF919191919191FFFFFFFFFF912B
:105370009191FFFF9191FFFF9191FFFF9191FFFFAD
:10538000919191FFFFFFFF91919191919191919155
:1053900091919191919191919191FFFFFFFFFFFF69
:1053A000919191919191FFFF9191919191FFFF9135
:1053B00091919191FFFF9191919191FFFF91919125
:1053C000919191FFFF9191919191919191919191F1
:1053D0009191919191919191919191FFFFFFFF9105
:1053E0009191FFFF9191FFFF919191FFFFFFFF913D
:1053F0009191FFFF9191FFFF9191FFFF9191FFFF2D
:10540000919191FFFFFFFF919191919191919191D4
:105410009191919191919191919191FFFFFFFF91C4
:105420009191FFFF9191FFFF919191FFFFFFFFFF8E
:10543000919191919191FFFF9191919191FFFF91A4
:10544000919191FFFFFF9191919191919191919102
:10545000918484848484848484848431313131844B
:1054600084843131848431318484313184313131E7
:1054700084843131318431318484313184843131D7
:105480008484843131313184848484848484848428
:105490008484848484848484848484843131848472
:1054A000848484313131848484848484313184845B
:1054B00084848484313184848484848431318484F8
:1054C000848431313131313184848484848484848E
:1054D00084848484848484848484843131313184D8
:1054E000848431318484313184848484843131846E
:1054F00084848484313184848484843131848484B8
:10550000848431313131313184848484848484844D
:10551000848484848484848484843131313131313D
:105520008484848484313184848484843131848487
:10553000848484848431318484843131848431311D
:105540008484843131313184848484848484848467
:1055500084848484848484848484848484313184B1
:105560008484848431313184848484313131318440
:105570008484313184313184848431313131313129
:105580008484848484313184848484848484848481
:1055900084848484848484848484313131313131BD
:1055A0008484313184848484848431313131318400
:1055B000848484848484313184843131848431319D
:1055C00084848431313131848484848484848484E7
:1055D00084848484848484848484843131313184D7
:1055E00084843131848484848484313131313184C0
:1055F0008484313184843131848431318484313103
:1056000084848431313131848484848484848484A6
:10561000848484848484848484843131313131313C
:105620008484848484843131848484848431318486
:105630008484848431318484848484313184848476
:1056400084848431318484848484848484848484C0
:105650008484848484848484848484313131318456
:105660008484313184843131848484313131318492
:105670008484313184843131848431318484313182
:105680008484843131313184848484848484848426
:105690008484848484848484848484313131318416
:1056A00084843131848431318484843131313131A5
:1056B00084848484848431318484848484313184F6
:1056C0008484843131318484848484848484848493
:1056D0008484848484848484848484843131848430
:1056E0008484848431318484848431313131313112
:1056F00084848484313184848484848431318484B6
:105700008484848484848484848484848484848459
:105710008440404040E1E1E1E140404040E1E1E1DE
:10572000E14040404040E1E1E1404040404040E154
:10573000E1404040404040404040404040404040C8
:105740004040404040404040404040404040404059
:1057500040E1E1E1E1E1E1E1E1E1E1E1E1E1E1E1DA
:10576000E1E1E1E1E1E1E1E1E1E1E1E1E1E1E1E129
:10577000E140404040404040404040404040404088
:105780004040404040404040404040404040404019
:1057900040E1E1E1E140404040E1E1E1E140404001
:1057A00040E1E1E14040404040E1E14040404040D4
:1057B00040404040404040404040404040404040E9
:1057C00040404040404040404040404040404040D9
:1057D000400A0A0A0A0A0A0A0A0A0A0A0A0A0A0AF3
:1057E0000A0A0AFEFEFEFEFEFE0A0AFEFEFEFEFE9D
:1057F000FE0A0AFEFEFEFE83830A0AFEFEFE838385
:10580000830A0AFEFE838383830A0AFEFE83838360
:10581000830A0A0A0A0A0A0A0A0A0A0A0A0A0A0A6F
:105820000AFEFEFEFEFEFEFEFEFEFEFEFEFEFEFE8C
:10583000FE838383838383838383838383838383BD
:105840008383838383838383838383838383838328
:10585000830A0A0A0A0A0A0A0A0A0A0A0A0A0A0A2F
:105860000AFEFEFEFEFEFE0A0AFEFEFEFEFEFE0A28
:105870000A8383FEFEFEFE0A0A838383FEFEFE0A7F
:105880000A83838383FEFE0A0A83838383FEFE0AE0
:105890000A0A0AFEFE838383830A0AFEFE83838349
:1058A000830A0AFEFE838383830A0AFEFE838383C0
:1058B000830A0AFEFE838383830A0AFEFE838383B0
:1058C000830A0AFEFE838383830A0AFEFE838383A0
:1058D0008383838383838383838383838383838398
:1058E0008383838383838383838383838383838388
:1058F0008383838383838383838383838383838378
:105900008383838383838383838383838383838367
:1059100083838383838383838383FFFFFFFFFF83EB
:105920008383FFFF8383FFFF8383FFFF8383FFFF67
:105930008383FFFFFFFFFF838383FFFF83838383D3
:105940008383FFFF8383838383838383838383832F
:105950008383838383838383838383838383838317
:10596000838383FFFFFFFF83838383838383FFFF1F
:10597000838383FFFFFFFFFF8383FFFF8383FFFF9B
:10598000838383FFFFFFFFFF83838383838383837B
:1059900083838383838383838383838383838383D7
:1059A0008383FFFF8383FFFF8383FFFF8383FFFFE7
:1059B0008383FFFF8383FFFF8383FFFF8383FFFFD7
:1059C000838383FFFFFFFFFF83838383838383833B
:1059D0008383838383838383838383838383838397
:1059E000838383FFFFFFFFFF8383FFFF8383838323
:1059F000838383FFFFFFFF83838383838383FFFF8F
:105A00008383FFFFFFFFFF838383838383838383FA
:105A10008383838383838383838383838383838356
:105A2000838383FFFFFFFF838383FFFF8383FFFF66
:105A30008383FFFFFFFFFFFF8383FFFF8383838356
:105A4000838383FFFFFFFF83838383838383838336
:105A50008383838383838383838383838383FFFF1E
:105A6000838383838383FFFF838383FFFFFFFFFFA2
:105A70008383FFFF8383FFFF8383FFFF8383FFFF16
:105A8000838383FFFFFFFFFF83838383838383837A
:105A90008383838383FEFE0A0A83838383FEFE0A55
:105AA0000A83838383FEFE0A0A83838383FEFE0ABE
:105AB0000A83838383FEFE0A0A83838383FEFE0AAE
:105AC0000A83838383FEFE0A0A83838383FEFE0A9E
:105AD0000A404040404040404040404040404040FC
