:100000000C9421330C94C6330C94C6330C94C63331
:100010000C94C6330C94C6330C94C6330C94C6337C
:100020000C94C6330C94C6330C94C6330C94C6336C
:100030000C94C6330C940B360C94C6330C94C63314
:100040000C94C6330C94C6330C94C6330C94C6334C
:100050000C94C6330C94C6330C94C6330C94C6333C
:100060000C94C6330C94C6330C94C6330C94C6332C
:100070005A5501200201003808000000000000006D
:100080000000000000A440B24082415D454745B5F4
:1000900040C440D3402D45E140EF401E1C0000000D
:1000A0000000000000000000000000000000000050
:1000B0000000000000000000000000000000000040
:1000C0000000000000000000000000000000000030
:1000D0000000000000000000000000000000000020
:1000E0000000000000000102030405060708090AD9
:1000F0000B0C0000000000000000000000000000E9
:10010000000000000D0E0F10111213141516171811
:1001100000000000000000000000000000000000DF
:1001200000000000000000000000000000000000CF
:1001300000000000191A1A1A1A1A1A1A1B1C1D1D7F
:100140001D1D1D1D1D1D1D1D1D1D1D1D1D1D1E00FB
:1001500000001F20212223242520262728292A2B9E
:100160002C2D2E2F30313233343536363700000007
:100170001F383838383838382627393A3B3C3D3E26
:100180003F404142434445463636370000001F4752
:1001900048492223242526274A4B4C4D4E4F505187
:1001A0005253545556573636370000001F383838EA
:1001B00038383838262758595A5B5C5D5E5F606175
:1001C000626364653636370000001F2066256725A8
:1001D00068202627696A6B6C6D6E6F707172383695
:1001E00036363636370000001F3838383838383859
:1001F0002627737475767778797A7B7C7D363636E8
:100200003636370000001F2047487E7F49202627CA
:100210008081818181818181818236363636363690
:10022000370000001F38383838383838262783849C
:1002300085868788898A848B363636363636370007
:1002400000008C8D8D8D8D8D8D8D8E278384848F78
:100250008F8F8F84848B36363636363637000000E3
:10026000000000000000000000278390918988872B
:100270009289848B363636363636370000000000D9
:1002800000000000000000278384849387949584F5
:10029000848B3636363636363700000000000000D4
:1002A0000000000000278384968788949784848BBD
:1002B00036363636363637000000191A1A1A1A1A28
:1002C0001A1A1B27838484989984989A9A8B3636B5
:1002D00036363636370000001F9B9B9B9B9B9B9BB3
:1002E00026279C9D9D9D9D9D9D9D9D9E36363636C7
:1002F0003636370000001F9B9B9B9B9B9B9B2627B2
:10030000363636363636363636363636363636368D
:10031000370000001F9B9B9B9B9B9B9B26279FA0BE
:10032000A1A2A3A4A5A6A7363636363636363700A0
:1003300000008C8D8D8D8D8D8D8D8EA8A9A9A9A97C
:10034000A9A9A9A9A9A9A9A9A9A9A9A9AA00000017
:10035000000000000000000000AB9F9F9F9F9F9F38
:100360009F9F9F9F9F9F9F9F9F9FAC000080818129
:10037000818181818181828081818181818181816D
:10038000818182000000000000000083AD89AE89F9
:10039000AF84B0B18B83B28692898498AE89B3B4AE
:1003A0008B000000000000000083B59189888792CF
:1003B00089B68B83B4B7B88492B8AE8988B48B0001
:1003C000000000000000009C9D9D9D9D9D9D9D9DA9
:1003D0009E9C9D9D9D9D9D9D9D9D9D9D9E00000023
:1003E00000000000000B01696A6B6C6D6E6F70712C
:1003F00072380B01737475767778797A7B7C7D011E
:10040000019B09019FA0A1A2A3A4A5A6A70A0880F9
:1004100081818181818181818283848586878889A8
:100420008A848B8384848F8F8F8F84848B83909135
:100430008988879289848B83848493879495848424
:100440008B8384968788949784848B8384849899FB
:1004500084989A9A8B9C9D9D9D9D9D9D9D9D9E019E
:1004600001840101900A04808181818181818181DF
:100470008283AD89AE89AF84B0B18B83B591898811
:10048000879289B68B9C9D9D9D9D9D9D9D9D9E0C5B
:100490000480818181818181818181818283B28691
:1004A00092898498AE89B3B48B83B4B7B88492B878
:1004B000AE8988B48B9C9D9D9D9D9D9D9D9D9D9D80
:1004C0009E02022829393A02022A2B3B3C02022CC6
:1004D0002D3D3E02022E2F3F4002023031414202AA
:1004E0000232334344020234354546020236363680
:1004F0003602024A4B585902024C4D5A5B02024ED8
:100500004F5C5D020250515E5F0202525360610215
:1005100002545562630202565764654040404040B1
:1005200040404040404040404040404040404040CB
:1005300040404040404040404040404040404040BB
:1005400040404040404040404040404040404040AB
:10055000404040404040404040404040404040409B
:1005600040404040404040404F4F4F404040404F4F
:100570004F4F4F4040404F4F40404040404F404021
:10058000404040404040404040404040404040406B
:1005900040404F404040404040404F4F4F4F4F4FF2
:1005A0004040404F4F4F4F4F4F4F404F4F4F4F4F97
:1005B0004F4F4F404F4F404F4F4F4F404F404040A5
:1005C0004F4F4F4F4040404F4F4F404040404F4FA4
:1005D0004F4040404F4F4F4F4040404040404040D0
:1005E000404040404040404040404040404040400B
:1005F000404040404040404040404040404F4F40DD
:100600004F4F4F404F4F4F404F4F4F404F4F4F4036
:100610004F4F4F404F4F4F404F4F4F40404F4F4035
:10062000404040404F4F4F40404040404F4F4F4070
:10063000404040404F4F4F40404040404F4F4F4060
:100640004F4F4F404F4F4F4F4F4F4F404F4F4F4FD8
:100650004F4F4F404F4F4F40404F4F404040404022
:10066000404040404040404040404040404040408A
:100670004040404040404040404040404F4F4F404D
:100680004F4F4F4F4F4F4F404F4F4F4F4F4F4F4098
:100690004F4F4F4F4F4F4F4F4F4F4F4040404040B5
:1006A000404040404040404040404040404040404A
:1006B000404040404040404040404040404040403A
:1006C000404040404040404040404040404040402A
:1006D000404040404040404040404F40404040400B
:1006E00040404F404040404F4F4F4F4040404F4FA1
:1006F0004F4F4F40404F4F40404040404F404040A0
:100700004040404F4F4040404040404F40404040BC
:100710004040404F404040404040404F4F4F4F408E
:100720004040404F4F4F4F404040404F4F4F4F4051
:10073000404040404F4F4F4040404040404F40407D
:10074000404F4F40404F4040404F4F40404040405E
:10075000404F4F4040404040404F4F40404040405D
:100760004040404040404040404040404040404089
:1007700040404040404040404040404F404F4F404C
:10078000404F4F4F4F4F4F404F4F4F4F404F4040C4
:100790004F4F4F4F404040404F4F4F4040404040F0
:1007A0004040404040404040404040404040404049
:1007B0004040404040404040404040404F4F4F400C
:1007C00040404F404F4F4F40404F4F404F4F4F40A2
:1007D0004F4F4F404F4F4F404F4F4F404040404092
:1007E00040404F4040404040404F4F4040404040DC
:1007F000404F4F4040404040404F4F4F4F4F4F4081
:10080000404F4F4F4F4F4F40404F4F404040404070
:10081000404F4F4F4F4F4F4F404F4F4F4040404042
:100820004040404F404040404040404F40404040AA
:100830004040404F404040404040404F404F4F407C
:100840004040404F4F4F4F4F4F40404F40404F4F21
:100850004F40404F40404F4F4F404040404040404D
:10086000404F4F40404040404F4F4F40404040403D
:100870004F4F4F404F40404F404F4F4F4F4F4F40D3
:1008800040404F404F4F404040404040404040403B
:1008900040404040404040404040404F4F4040403A
:1008A0004040404F404040404040404F4F4040401B
:1008B0004040404F4F4F40404040404F4F4F4F40CF
:1008C000404040404F4F404040404040404F4040FB
:1008D0004040404040404040404040404F4F4F40EB
:1008E0004F4F4F404F4F4F404F4F4F40404F4F4F54
:1008F0004F4F4F40404040404040404040404040CB
:1009000040404040404040404040404040404040E7
:100910004040404040404040404040404F4F4F40AA
:10092000404F4F404F4F4F4F4F4F4F404F4F4F4013
:100930004F4F40404F40404040404040404040408A
:1009400040404040404040404040404040404040A7
:1009500040404040404040404040404F4F4F4F4F4C
:100960004F4F4F404F4F4F404F4F4F404F4F4040E2
:100970004F4F4F404F4040404F4F4F404F4F4040F0
:100980004F4F404F4F4F4F4F4F40404040404F4FD1
:100990004F40404040404040404040404040404048
:1009A00040404F404040404040404F404040404029
:1009B00040404F404040404040404F404040404019
:1009C0004040404040404040404040404040404027
:1009D00040404040404040404040404F4040404008
:1009E0004040404F4F4040404040404F4F4F4040BC
:1009F0004040404F4F4F4F4F4F4F404F4F4F4F4F43
:100A00004F4F4F404F4F4F4F4F4F4F4040404F4F32
:100A10004F4F4F40404040404040404040404040A9
:100A2000404F4F4040404040404F4F40404040408A
:100A300040404F40404040404040404F4F4F4F4F5C
:100A40004F40404F4F4F4F4F4040404F4F4F40401F
:100A500040404040404040404040404F4040404087
:100A60004F4F4F4F4F4040404F4F4F4F4F404040F0
:100A7000404F4F4040404040404040404040404058
:100A80004040404040404040404040404040404066
:100A90004040404040404040404040404F4F4F4029
:100AA000404F4F404F4F4F404F40404F4F4F4F40B0
:100AB000404F4F4040404040404040404040404018
:100AC0004040404040404040404040404040404026
:100AD00040404040404040404040404F4F4F4F4FCB
:100AE000404F4F40404F4F4F404F4F4F4F4F404070
:100AF000404F4F40404040404040404040404040D8
:100B000040404040404040404040404040404040E5
:100B100040404040404040404040404F40404F4FA8
:100B20004F40404F40404F4F4F40404F40404F4F4D
:100B30004F40404040404F4F40404040404F404079
:100B400040404040404040404040404040404040A5
:100B50004040404040404040404040404040404095
:100B60004040404040404040404040404040404085
:100B70004040404040404040404040404040404075
:100B800040E1E14040404040E1E1E140404040E19F
:100B9000E1E1E140404040E1E1E1E14040404040EE
:100BA0004040404040404040404040404040404045
:100BB0004040404040404040404040E1E1E1E1E110
:100BC000E1E1E1E1E1E1E1E1E1E1E1E1E1E1E1E115
:100BD000E1E1E1E1E1E1E1E1E1E1E140404040402A
:100BE0004040404040404040404040404040404005
:100BF0004040404040404040404040E1E1404040B3
:100C0000404040E1E1E14040404040E1E1E1E1407D
:100C1000404040E1E1E1E140404040404040404050
:100C200040404040404040404040404040404040C4
:100C300040404040404040404040404040404040B4
:100C400040373740404040403737374040404037DA
:100C500037373740404040373737374040404040D3
:100C60004040404040404040404040404040404084
:100C700040404040404040404040403737373737A1
:100C800037373737373737373737373737373737F4
:100C900037373737373737373737374040404040B7
:100CA0004040404040404040404040404040404044
:100CB0004040404040404040404040373740404046
:100CC0004040403737374040404040373737374063
:100CD000404040373737374040404040404040E197
:100CE000E1E1E140404040E1E1E1E140404040E1FC
:100CF000E1E1E140404040E1E1E1E140404040E1EC
:100D0000E1E1E140404040E1E1E1E140404040E1DB
:100D1000E1E1E140404040E1E1E1E19191919191D7
:100D200091919191919191919191919191919191B3
:100D300091919191919191919191919191919191A3
:100D40009191919191919191919191919191919193
:100D50009191919191919191919191919191919183
:100D60009191919191FFFFFFFF919191FFFF9191DF
:100D70009191919191FFFFFFFF91919191919191AB
:100D8000FFFF919191919191FFFF919191FFFFFF51
:100D9000FF919191919191919191919191919191D5
:100DA00091919191919191919191919191FFFFFFE9
:100DB000FF919191FFFF919191919191FFFF9191FD
:100DC00091919191FFFF91919191919191FFFFFFED
:100DD000FF91919191919191919191919191919195
:100DE00091919191919191919191919191FFFFFFA9
:100DF000FF919191FFFF9191FFFF9191FFFF9191E1
:100E0000FFFF9191FFFF9191FFFF919191FFFFFFF4
:100E1000FF91919191919191919191919191919154
:100E2000919191919191919191919191FFFFFFFFFA
:100E3000FF919191FFFF9191FFFF9191FFFF9191A0
:100E400091919191FFFF919191919191FFFF9191DA
:100E50009191919191919191919191919191919182
:100E600091919191919191919191919191FFFFFF28
:100E7000FF919191FFFF9191FFFF9191FFFFFFFF84
:100E8000FFFF9191FFFF91919191919191FFFFFF50
:100E9000FF91919191919191919191E1E1E1E140E5
:100EA000404040E1E1E1E140404040E1E1E1E1403A
:100EB000404040E1E1E1E140404040E1E1E1E1402A
:100EC000404040E1E1E1E140404040E1E1E1E1401A
:100ED000404040E1E1E1E140404040404040403797
:100EE000373737404040403737373740404040374A
:100EF000373737404040403737373740404040373A
:100F00003737374040404037373737404040403729
:100F100037373740404040373737370A0A0A0A0A1E
:100F20000A0A0A0A0A0A0A0A0A0A0A0A0A0A0A0A21
:100F30000A00000A0A0A0A0000FFFE0A0A0A00FF65
:100F4000FFFFFE0A0A0A00FFFFFFFE0A0A00FFFF7A
:100F5000FFFEFE0A0A00FEFEFEFEFE0A0A0A0A0A5A
:100F60000A0A0A0A0A0A0A0A0A0A0A00000A0A0AF5
:100F70000A0A0AFEFE00000A0A0A0AFEFEFEFE0037
:100F80000A0A0AFEFEFEFE000A0A0AFEFEFEFEFC39
:100F9000000A0AFEFEFEFCFC000A0A0A0A0A0A0A05
:100FA0000A0A0A0A0A0A0A0A0A0A0A0A0A0A0A0AA1
:100FB0000A0A000A0A0A0A0A0A00850A0A0A0A0A2A
:100FC0000A00850A0A0A0A0A0085850A0A0A0A0A24
:100FD0000085430A0A0A0A008585430A0A0A0A0AA2
:100FE0000A0A0A0A0A0A0A0A0A0A0A000A0A0A0A6B
:100FF0000A0A0A85000A0A0A0A0A0A85000A0A0A6F
:101000000A0A0A8585000A0A0A0A0A4385000A0AAA
:101010000A0A0A438585000A0A0A0A0A0A0A0A0A0B
:101020000A0A0A0A0A0A0A0A0A0A0A0A0A0A0A0A20
:101030000000000A0A0A0A00112A2A0A0A0A002ADB
:101040002A112A0A0A00112A2A112A0A0A002A1138
:101050001111110A0A002A2A2A112A0A0A0A0A0A5E
:101060000A0A0A0A0A0A0A0A0A0A0A0000000A0AFE
:101070000A0A0A2A2A11000A0A0A0A2A112A2A0036
:101080000A0A0A2A112A2A11000A0A111111112A20
:10109000000A0A2A112A2A2A000A0A0A0A0A0A0A3D
:1010A0000A0A0A0A0A0A0A0A0A0A0A0A0A0A0A0AA0
:1010B0000A0A000A0A0A0A0A0A00270A0A0A0A0091
:1010C0000027270A0A0A00272715270A0A0A0027E5
:1010D0002727150A0A0A00272715270A0A0A0A0AD3
:1010E0000A0A0A0A0A0A0A0A0A0A0A000A0A0A0A6A
:1010F0000A0A0A27000A0A0A0A0A0A272700000A17
:101100000A0A0A27152727000A0A0A15272727008F
:101110000A0A0A27152727000A0A0A0A0A0A0A0AD7
:101120000A0A0A0A0A0A0A0A0A0A0A0A0A0A0A0A1F
:101130000A0A000A0A0A0A0A0A00250A0A0A0A0A08
:101140000037250A0A0A0A003737250A0A0A003733
:101150003737250A0A0025252525250A0A0A0A0AFD
:101160000A0A0A0A0A0A0A0A0A0A0A000A0A0A0AE9
:101170000A0A0A37000A0A0A0A0A0A3737000A0A5C
:101180000A0A0A373737000A0A0A0A373737370098
:101190000A0A0A2537373737000A0A0A0A0A0A0AEA
:1011A0000A0A0A0A0A0A0A0A0A0A0A0A0A0A0A00A9
:1011B0000000000A0A0A00D0D040D00A0A00D0D0AD
:1011C00040D0D00A0A0040404040400A0A0A00D0FD
:1011D00040D0D00A0A0A00D0D040D00A0A0A0A0A2F
:1011E0000A0A0A0A0A0A0A0A0A0A0A000000000A87
:1011F0000A0A0AD040D0D0000A0A0AD0D040D0D083
:10120000000A0A4040404040000A0AD0D040D000C6
:101210000A0A0AD040D0D0000A0A0A0A0A0A0A0AB0
:101220000A0A0A0A0A0A0A0A0A0A0A0A0A0A000032
:101230000000000A0A0000070707070A0A00070063
:101240000707070A0A0007070000000A0A00070745
:101250000007070A0A0007070007070A0A0A0A0A1E
:101260000A0A0A0A0A0A0A0A0A0A0A000000000010
:101270000A0A0A0707070700000A0A070707000704
:10128000000A0A0000000707000A0A07070007070C
:10129000000A0A0707000707000A0A0A0A0A0A0AD8
:1012A0000A0A0A0A0A0A0A0A0A0A0A0A0A0A0A0A9E
:1012B0000A0A0A0A0A0A0A0A0A0A0A0A0A0A0A0A8E
:1012C0000A0A0A0A0A0A0A0A0A0A0A0A0A0A0A0A7E
:1012D0000A0A0A0A0A0A0A0A0A0A0A373737374084
:1012E0004040403737373740404040373737374046
:1012F0004040403737373740404040373737374036
:101300004040403737373740404040373737374025
:10131000404040373737374040404091919191915C
:101320009191919191484848489191914848919163
:101330004848919148489148484891914848489177
:10134000484891914848919148489191914848481E
:1013500048919191919191919191910A0A00FEFE8B
:10136000FEFEFE0A0A00FEFEFEFEFE0A0A0A00FE5D
:10137000FEFEFE0A0A0A00FEFEFEFC0A0A0A0A0037
:1013800000FCFC0A0A0A0A0A0A00000A0A0A0A0AF7
:101390000A0A0A0A0A0A0A0A0A0A0AFEFEFEFCFCED
:1013A000000A0AFEFEFCFCFC000A0AFEFCFCFC0033
:1013B0000A0A0AFCFCFCFC000A0A0AFCFC00000AFF
:1013C0000A0A0A00000A0A0A0A0A0A0A0A0A0A0A91
:1013D0000A0A0A0A0A0A0A0A0A0A0A0A0A0A0A0077
:1013E0008543850A0A0A00858543850A0A0A00851D
:1013F0004385850A0A0085854343430A0A0085859B
:101400008585850A0A0000000000000A0A0A0A0A07
:101410000A0A0A0A0A0A0A0A0A0A0A854385000A07
:101420000A0A0A85438585000A0A0A8585438500DC
:101430000A0A0A4343438585000A0A85858585850E
:10144000000A0A0000000000000A0A0A0A0A0A0A42
:101450000A0A0A0A0A0A0A0A0A0A0A0A0A002A2AB6
:101460002A112A0A0A002A111111110A0A00112A46
:101470002A112A0A0A0A002A2A112A0A0A0A0A0032
:10148000112A2A0A0A0A0A0A0000000A0A0A0A0A93
:101490000A0A0A0A0A0A0A0A0A0A0A2A112A2A2A25
:1014A000000A0A111111112A000A0A2A112A2A1106
:1014B000000A0A2A112A2A000A0A0A2A2A11000AFC
:1014C0000A0A0A0000000A0A0A0A0A0A0A0A0A0A9A
:1014D0000A0A0A0A0A0A0A0A0A0A0A0A0A0A002759
:1014E0002715270A0A0A00272727150A0A0A0027AC
:1014F0002715270A0A0A0A000027270A0A0A0A0AE1
:101500000A00270A0A0A0A0A0A0A000A0A0A0A0A32
:101510000A0A0A0A0A0A0A0A0A0A0A2715272700D3
:101520000A0A0A15272727000A0A0A27152727006B
:101530000A0A0A272700000A0A0A0A27000A0A0AD2
:101540000A0A0A000A0A0A0A0A0A0A0A0A0A0A0A05
:101550000A0A0A0A0A0A0A0A0A0A0A0A0A0037379B
:101560003737250A0A0A00373737370A0A0A0A00C6
:101570003737370A0A0A0A0A0037370A0A0A0A0AF4
:101580000A00370A0A0A0A0A0A0A000A0A0A0A0AA2
:101590000A0A0A0A0A0A0A0A0A0A0A252525252524
:1015A000000A0A25373737000A0A0A253737000AA2
:1015B0000A0A0A2537000A0A0A0A0A25000A0A0A3C
:1015C0000A0A0A000A0A0A0A0A0A0A0A0A0A0A0A85
:1015D0000A0A0A0A0A0A0A0A0A0A0A0A0A0A0A0075
:1015E000D040D00A0A0A0A00D0D0400A0A0A0A0AE1
:1015F00000D0400A0A0A0A0A00D0400A0A0A0A0A67
:101600000A00400A0A0A0A0A0A0A000A0A0A0A0A18
:101610000A0A0A0A0A0A0A0A0A0A0AD040D0000A72
:101620000A0A0A40D0D0000A0A0A0A40D0000A0A70
:101630000A0A0A40D0000A0A0A0A0A40000A0A0AEC
:101640000A0A0A000A0A0A0A0A0A0A0A0A0A0A0A04
:101650000A0A0A0A0A0A0A0A0A0A0A0A0A000707FA
:101660000007070A0A0007070007070A0A0007071A
:101670000000000A0A0007000707070A0A0000071F
:101680000707070A0A0A00000000000A0A0A0A0AF5
:101690000A0A0A0A0A0A0A0A0A0A0A0707000707C0
:1016A000000A0A0707000707000A0A0000000707E8
:1016B000000A0A0707070007000A0A0707070700CA
:1016C000000A0A00000000000A0A0A0A0A0A0A0AB6
:1016D0000A0A0A0A0A0A0A0A0A0A0A9191919191C7
:1016E00091919191FFFF9191FFFF9191FFFF919156
:1016F000FFFF9191FFFFFFFFFFFF9191FFFF91918E
:10170000FFFF9191FFFF9191FFFF9191FFFF919159
:10171000FFFF9191919191919191919191919191DD
:10172000919191919191FFFF9191919191919191CD
:101730009191919191FFFFFF919191919191FFFF73
:10174000919191919191FFFF9191919191FFFFFF63
:10175000FF9191919191919191919191919191910B
:1017600091919191919191919191919191FFFFFF1F
:10177000FFFF9191FFFF91919191919191FFFFFF57
:10178000FF91919191919191FFFF9191FFFFFFFF47
:10179000FF919191919191919191910A0A0A0A0A6E
:1017A0000A0A0A0A0A0A0A0A0A0A0A0A0A0A0A0A99
:1017B0000AFEFE0A0A0A0AFEFEFEFE0A0A0AFEFEE9
:1017C000FEFEFE0A0A0AFEFEFEFEFE0A0AFEFEFEFD
:1017D000FEFEFE0A0AFEFEFEFEFEFE0A0A0A0A0AD5
:1017E0000A0A0A0A0A0A0A0A0A0A0AFEFE0A0A0A71
:1017F0000A0A0AFEFEFEFE0A0A0A0AFEFEFEFEFEB5
:101800000A0A0AFEFEFEFEFE0A0A0AFEFEFEFEFEB0
:10181000FE0A0AFEFEFEFEFEFE0A0A0A0A0A0A0A7C
:101820000A0A0A0A0A0A0A0A0A0A0A0A0A0A0A0A18
:101830000A0AFE0A0A0A0A0A0AFEFE0A0A0A0A0A2C
:101840000AFEFE0A0A0A0A0AFEFEFE0A0A0A0A0A34
:10185000FEFEFE0A0A0A0AFEFEFEFE0A0A0A0A0A3C
:101860000A0A0A0A0A0A0A0A0A0A0AFE0A0A0A0AE4
:101870000A0A0AFEFE0A0A0A0A0A0AFEFE0A0A0AF8
:101880000A0A0AFEFEFE0A0A0A0A0AFEFEFE0A0A00
:101890000A0A0AFEFEFEFE0A0A0A0A0A0A0A0A0AD8
:1018A0000A0A0A0A0A0A0A0A0A0A0A0A0A0A0A0A98
:1018B000FEFEFE0A0A0A0AFEFEFEFE0A0A0AFEFEF4
:1018C000FEFEFE0A0AFEFEFEFEFEFE0A0AFEFEFE08
:1018D000FEFEFE0A0AFEFEFEFEFEFE0A0A0A0A0AD4
:1018E0000A0A0A0A0A0A0A0A0A0A0AFEFEFE0A0A7C
:1018F0000A0A0AFEFEFEFE0A0A0A0AFEFEFEFEFEB4
:101900000A0A0AFEFEFEFEFEFE0A0AFEFEFEFEFEBB
:10191000FE0A0AFEFEFEFEFEFE0A0A0A0A0A0A0A7B
:101920000A0A0A0A0A0A0A0A0A0A0A0A0A0A0A0A17
:101930000A0AFE0A0A0A0A0A0AFEFE0A0A0A0AFE37
:10194000FEFEFE0A0A0AFEFEFEFEFE0A0A0AFEFE6F
:10195000FEFEFE0A0A0AFEFEFEFEFE0A0A0A0A0A47
:101960000A0A0A0A0A0A0A0A0A0A0AFE0A0A0A0AE3
:101970000A0A0AFEFE0A0A0A0A0A0AFEFEFEFE0A0F
:101980000A0A0AFEFEFEFEFE0A0A0AFEFEFEFEFE2F
:101990000A0A0AFEFEFEFEFE0A0A0A0A0A0A0A0AE3
:1019A0000A0A0A0A0A0A0A0A0A0A0A0A0A0A0A0A97
:1019B0000A0AFE0A0A0A0A0A0AFEFE0A0A0A0A0AAB
:1019C000FEFEFE0A0A0A0AFEFEFEFE0A0A0AFEFEE3
:1019D000FEFEFE0A0AFEFEFEFEFEFE0A0A0A0A0AD3
:1019E0000A0A0A0A0A0A0A0A0A0A0AFE0A0A0A0A63
:1019F0000A0A0AFEFE0A0A0A0A0A0AFEFEFE0A0A83
:101A00000A0A0AFEFEFEFE0A0A0A0AFEFEFEFEFEA2
:101A10000A0A0AFEFEFEFEFEFE0A0A0A0A0A0A0A6E
:101A20000A0A0A0A0A0A0A0A0A0A0A0A0A0A0AFE22
:101A3000FEFEFE0A0A0AFEFEFEFEFE0A0AFEFEFE8A
:101A4000FEFEFE0A0AFEFEFEFEFEFE0A0A0AFEFE7A
:101A5000FEFEFE0A0A0AFEFEFEFEFE0A0A0A0A0A46
:101A60000A0A0A0A0A0A0A0A0A0A0AFEFEFEFE0A06
:101A70000A0A0AFEFEFEFEFE0A0A0AFEFEFEFEFE3E
:101A8000FE0A0AFEFEFEFEFEFE0A0AFEFEFEFEFE46
:101A90000A0A0AFEFEFEFEFE0A0A0A0A0A0A0A0AE2
:101AA0000A0A0A0A0A0A0A0A0A0A0A0A0A0AFEFEAE
:101AB000FEFEFE0A0AFEFEFEFEFEFE0A0AFEFEFE16
:101AC000FEFEFE0A0AFEFEFEFEFEFE0A0AFEFEFE06
:101AD000FEFEFE0A0AFEFEFEFEFEFE0A0A0A0A0AD2
:101AE0000A0A0A0A0A0A0A0A0A0A0AFEFEFEFEFE92
:101AF0000A0A0AFEFEFEFEFEFE0A0AFEFEFEFEFECA
:101B0000FE0A0AFEFEFEFEFEFE0A0AFEFEFEFEFEC5
:101B1000FE0A0AFEFEFEFEFEFE0A0A0A0AFEFEFE9D
:101B2000FEFEFE0A0AFEFEFEFEFEFE0A0A0AFEFE99
:101B3000FEFEFE0A0A0AFEFEFEFEFE0A0A0A0AFE71
:101B4000FEFEFE0A0A0A0A0A0AFEFE0A0A0A0A0A31
:101B50000A0A0A0A0A0A0A0A0A0A0AFEFEFEFEFE21
:101B6000FE0A0AFEFEFEFEFEFE0A0AFEFEFEFEFE65
:101B70000A0A0AFEFEFEFEFE0A0A0AFEFEFEFE0A31
:101B80000A0A0AFEFE0A0A0A0A0A0A0A0A0A0A0ACD
:101B90000A0A0A0A0A0A0A0A0A0A0A0A0A0A0AFEB1
:101BA000FEFEFE0A0A0AFEFEFEFEFE0A0A0AFEFE0D
:101BB000FEFEFE0A0AFEFEFEFEFEFE0A0AFEFEFE15
:101BC000FEFEFE0A0AFEFEFEFEFEFE0A0A0A0A0AE1
:101BD0000A0A0A0A0A0A0A0A0A0A0AFEFEFEFE0A95
:101BE0000A0A0AFEFEFEFEFE0A0A0AFEFEFEFEFECD
:101BF0000A0A0AFEFEFEFEFEFE0A0AFEFEFEFEFEC9
:101C0000FE0A0AFEFEFEFEFEFE0A0A0A0A0A0A0A88
:101C10000A0A0A0A0A0A0A0A0A0A0A0A0AFEFEFE48
:101C2000FEFEFE0A0AFEFEFEFEFEFE0A0AFEFEFEA4
:101C3000FEFEFE0A0A0AFEFEFEFEFE0A0A0A0AFE70
:101C4000FEFEFE0A0A0A0A0AFEFEFE0A0A0A0A0A3C
:101C50000A0A0A0A0A0A0A0A0A0A0AFEFEFEFEFE20
:101C6000FE0A0AFEFEFEFEFEFE0A0AFEFEFEFEFE64
:101C7000FE0A0AFEFEFEFEFE0A0A0AFEFEFEFE0A3C
:101C80000A0A0AFEFEFE0A0A0A0A0A0A0A0A0A0AD8
:101C90000A0A0A0A0A0A0A0A0A0A0A0A0A0AFEFEBC
:101CA000FEFEFE0A0A0AFEFEFEFEFE0A0A0AFEFE0C
:101CB000FEFEFE0A0A0A0AFEFEFEFE0A0A0A0A0AD8
:101CC0000AFEFE0A0A0A0A0A0A0AFE0A0A0A0A0A98
:101CD0000A0A0A0A0A0A0A0A0A0A0AFEFEFEFEFEA0
:101CE0000A0A0AFEFEFEFEFE0A0A0AFEFEFEFEFECC
:101CF0000A0A0AFEFEFEFE0A0A0A0AFEFE0A0A0A8C
:101D00000A0A0AFE0A0A0A0A0A0A0A0A0A0A0A0A3F
:101D10000A0A0A0A0A0A0A0A0A0A0A0A0AFEFEFE47
:101D2000FEFEFE0A0A0AFEFEFEFEFE0A0A0A0AFE7F
:101D3000FEFEFE0A0A0A0A0AFEFEFE0A0A0A0A0A4B
:101D40000AFEFE0A0A0A0A0A0A0AFE0A0A0A0A0A17
:101D50000A0A0A0A0A0A0A0A0A0A0AFEFEFEFEFE1F
:101D6000FE0A0AFEFEFEFEFE0A0A0AFEFEFEFE0A4B
:101D70000A0A0AFEFEFE0A0A0A0A0AFEFE0A0A0AFF
:101D80000A0A0AFE0A0A0A0A0A0A0A0A0A0A0A0ABF
:101D90000A0A0A0A0A0A0A0A0A0A0A0A0A0A0AFEAF
:101DA000FEFEFE0A0A0A0AFEFEFEFE0A0A0A0A0AE7
:101DB000FEFEFE0A0A0A0A0AFEFEFE0A0A0A0A0ACB
:101DC0000AFEFE0A0A0A0A0A0A0AFE0A0A0A0A0A97
:101DD0000A0A0A0A0A0A0A0A0A0A0AFEFEFEFE0A93
:101DE0000A0A0AFEFEFEFE0A0A0A0AFEFEFE0A0AA7
:101DF0000A0A0AFEFEFE0A0A0A0A0AFEFE0A0A0A7F
:101E00000A0A0AFE0A0A0A0A0A0A0A0A0A0A0A0A3E
:101E10000A0A0A0A0A0A0A0A0A0A0A0A0AFEFEFE46
:101E2000FEFEFE0A0AFEFEFEFEFEFE0A0AFEFEFEA2
:101E3000FEFEFE0A0AFEFEFEFEFEFE0A0AFEFEFE92
:101E4000FEFEFE0A0A0AFEFEFEFEFE0A0A0A0A0A52
:101E50000A0A0A0A0A0A0A0A0A0A0AFEFEFEFEFE1E
:101E6000FE0A0AFEFEFEFEFEFE0A0AFEFEFEFEFE62
:101E7000FE0A0AFEFEFEFEFEFE0A0AFEFEFEFEFE52
:101E8000FE0A0AFEFEFEFEFE0A0A0A0A0A0A0A0AFA
:101E90000A0A0A0A0A0A0A0A0A0A0A9191919191FF
:101EA00091919191FFFF919191919191FFFF91916A
:101EB00091919191FFFF919191919191FFFF91915A
:101EC00091919191FFFF919191919191FFFFFFFF6E
:101ED000FFFF919191919191919191919191919116
:101EE000919191919191919191919191FFFF919106
:101EF000FFFF9191FFFF9191FFFF9191FFFF919162
:101F0000FFFF919191FFFFFFFF9191919191FFFF51
:101F100091919191919191919191919191919191B1
:101F20009191919191FFFFFF919191919191FFFF7B
:101F3000919191919191FFFF919191919191FFFFD9
:101F4000919191919191FFFF9191919191FFFFFF5B
:101F5000FF91919191919191919191919191919103
:101F60009191919191FFFFFFFF919191FFFF9191CD
:101F7000FFFF9191FFFF91FFFFFF9191FFFFFF9105
:101F8000FFFF9191FFFF9191FFFF919191FFFFFF63
:101F9000FF919191919191919191919191919191C3
:101FA000919191919191FFFF9191919191FFFFFFFB
:101FB000919191919191FFFF919191919191FFFF59
:101FC000919191919191FFFF91919191FFFFFFFF6D
:101FD000FFFF919191919191919191919191919115
:101FE0009191919191FFFFFFFF919191FFFF91914D
:101FF000FFFF9191919191FFFF9191919191FFFF3D
:102000009191919191FFFF9191919191FFFFFFFF2C
:10201000FFFF9191919191919191919191919191D4
:1020200091919191FFFFFFFFFFFF9191919191FF9E
:10203000FF9191919191FFFF91919191919191FFD8
:10204000FF919191FFFF9191FFFF919191FFFFFF10
:10205000FF91919191919191919191919191919102
:1020600091919191919191FFFF9191919191FFFFA8
:10207000FF91919191FFFFFFFF919191FFFF91FFE0
:10208000FF919191FFFFFFFFFFFF9191919191FFD0
:10209000FF919191919191919191919191919191C2
:1020A00091919191FFFFFFFFFFFF9191FFFF9191B0
:1020B00091919191FFFFFFFFFF91919191919191EA
:1020C000FFFF9191FFFF9191FFFF919191FFFFFF22
:1020D000FF91919191919191919191919191919182
:1020E0009191919191FFFFFFFF919191FFFF91914C
:1020F00091919191FFFFFFFFFF919191FFFF9191CE
:10210000FFFF9191FFFF9191FFFF919191FFFFFFE1
:10211000FF91919191919191919191919191919141
:1021200091919191FFFFFFFFFFFF9191919191910B
:10213000FFFF9191919191FFFF9191919191FFFFFB
:102140009191919191FFFF919191919191FFFF91C7
:10215000919191919191919191919191919191916F
:102160009191919191FFFFFFFF919191FFFF9191CB
:10217000FFFF919191FFFFFFFF919191FFFF9191DF
:10218000FFFF9191FFFF9191FFFF919191FFFFFF61
:10219000FF919191919191919191919191919191C1
:1021A0009191919191FFFFFFFF919191FFFF91918B
:1021B000FFFF919191FFFFFFFFFF9191919191910D
:1021C000FFFF9191919191FFFF91919191FFFFFFFD
:1021D0009191919191919191919191848484848430
:1021E00084848484843131313184848431318484A1
:1021F00031318484313184313131848431313184DD
:102200003131848431318484313184848431313179
:1022100031848484848484848484848484848484D1
:10222000848484848484313184848484843131310D
:1022300084848484848431318484848484843131AA
:102240008484848484843131848484843131313140
:1022500031318484848484848484848484848484E4
:102260008484848484313131318484843131848420
:102270003131848484848431318484848484313110
:102280008484848484313184848484843131313100
:1022900031318484848484848484848484848484A4
:1022A0008484848431313131313184848484843133
:1022B000318484848484313184848484848484312A
:1022C0003184848431318484313184848431313166
:1022D0003184848484848484848484848484848411
:1022E00084848484848484313184848484843131FA
:1022F0003184848484313131318484843131843136
:102300003184848431313131313184848484843125
:1023100031848484848484848484848484848484D0
:102320008484848431313131313184843131848405
:1023300084848484313131313184848484848484FC
:102340003131848431318484313184848431313138
:102350003184848484848484848484848484848490
:10236000848484848431313131848484313184841F
:102370008484848431313131318484843131848462
:1023800031318484313184843131848484313131F8
:102390003184848484848484848484848484848450
:1023A00084848484313131313131848484848484DF
:1023B00031318484848484313184848484843131CF
:1023C0008484848484313184848484848431318419
:1023D00084848484848484848484848484848484BD
:1023E000848484848431313131848484313184849F
:1023F0003131848484313131318484843131848435
:102400003131848431318484313184848431313177
:1024100031848484848484848484848484848484CF
:10242000848484848431313131848484313184845E
:1024300031318484843131313131848484848484A1
:102440003131848484848431318484848431313191
:10245000848484848484848484848484848484843C
:102460008484848484843131848484848484313178
:1024700084848484313131313131848484843131B4
:1024800084848484848431318484848484848484B2
:1024900084848484848484848484849191919191BB
:1024A000919191919191919191919191FFFFFFFF64
:1024B000FF919191FFFF9191FFFF9191FFFF91910A
:1024C000FFFF9191FFFF9191FFFF9191FFFF91918C
:1024D000FFFF919191919191919191919191919110
:1024E000919191919191FFFF91919191FFFFFFFF48
:1024F000FFFF91919191FFFF919191919191FFFF38
:10250000919191919191FFFF91919191919191FF71
:10251000FFFF9191919191919191910A0A0A0A0A72
:102520000A0A0A0A0A0A0A0A0A0A0A0A0AFEFEFE2F
:10253000FEFEFE0A0AFEFEFEFEFEFE0A0AFEFEFE8B
:10254000FE83830A0AFEFEFE8383830A0AFEFE835D
:102550008383830A0AFEFE838383830A0A0A0A0AA4
:102560000A0A0A0A0A0A0A0A0A0A0AFEFEFEFEFE07
:10257000FEFEFEFEFEFEFEFEFEFEFE8383838383E2
:10258000838383838383838383838383838383831B
:1025900083838383838383838383830A0A0A0A0A68
:1025A0000A0A0A0A0A0A0A0A0A0A0AFEFEFEFEFEC7
:1025B000FE0A0AFEFEFEFEFEFE0A0A8383FEFEFE01
:1025C000FE0A0A838383FEFEFE0A0A83838383FE58
:1025D000FE0A0A83838383FEFE0A0A0A0AFEFE833A
:1025E0008383830A0AFEFE838383830A0AFEFE83B3
:1025F0008383830A0AFEFE838383830A0AFEFE83A3
:102600008383830A0AFEFE838383830A0AFEFE8392
:102610008383830A0AFEFE83838383838383838386
:10262000838383838383838383838383838383837A
:10263000838383838383838383838383838383836A
:10264000838383838383838383838383838383835A
:10265000838383838383838383838383838383834A
:1026600083838383FFFFFFFFFF838383FFFF8383D6
:10267000FFFF8383FFFF8383FFFF8383FFFFFFFF52
:10268000FF838383FFFF838383838383FFFF8383AE
:10269000838383838383838383838383838383830A
:1026A00083838383838383838383838383FFFFFF86
:1026B000FF83838383838383FFFF838383FFFFFF02
:1026C000FFFF8383FFFF8383FFFF838383FFFFFF7E
:1026D000FFFF8383838383838383838383838383D2
:1026E000838383838383838383838383FFFF8383C2
:1026F000FFFF8383FFFF8383FFFF8383FFFF8383CA
:10270000FFFF8383FFFF8383FFFF838383FFFFFF3D
:10271000FFFF838383838383838383838383838391
:1027200083838383838383838383838383FFFFFF05
:10273000FFFF8383FFFF83838383838383FFFFFF05
:10274000FF83838383838383FFFF8383FFFFFFFFF5
:10275000FF838383838383838383838383838383CD
:1027600083838383838383838383838383FFFFFFC5
:10277000FF838383FFFF8383FFFF8383FFFFFFFFCD
:10278000FFFF8383FFFF83838383838383FFFFFFB5
:10279000FF8383838383838383838383838383838D
:1027A0008383838383838383FFFF83838383838301
:1027B000FFFF838383FFFFFFFFFF8383FFFF83838D
:1027C000FFFF8383FFFF8383FFFF838383FFFFFF7D
:1027D000FFFF83838383838383838383838383FE56
:1027E000FE0A0A83838383FEFE0A0A83838383FEB1
:1027F000FE0A0A83838383FEFE0A0A83838383FEA1
:10280000FE0A0A83838383FEFE0A0A83838383FE90
:10281000FE0A0A83838383FEFE0A0A40404040E1A9
:10282000E1E1E140404040E1E1E1E1404040404041
:10283000E1E1E1404040404040E1E1404040404073
:102840004040404040404040404040404040404088
:102850004040404040404040404040E1E1E1E1E153
:10286000E1E1E1E1E1E1E1E1E1E1E1E1E1E1E1E158
:10287000E1E1E1E1E1E1E1E1E1E1E140404040406D
:102880004040404040404040404040404040404048
:102890004040404040404040404040E1E1E1E140B4
:1028A000404040E1E1E1E140404040E1E1E14040C1
:1028B000404040E1E14040404040404040404040D6
:1028C0004040404040404040404040404040404008
:1028D00040404040404040404040408383838383A9
:1028E00083838383838383838383838383838383B8
:1028F000838383FFFFFFFFFFFFFFFFFFFFFFFFFF5C
:10290000FFFFFF8383838383838383838383838323
:102910008383838383838383838383838383FF830B
:10292000838383838383FFFF838383838383FFFF87
:10293000FF8383838383FFFFFFFF83838383FFFF03
:10294000FF8383838383FFFF838383838383FF8367
:102950008383838383838383838383838383838347
:1029600083838383FFFFFFFFFF838383FFFF8383D3
:10297000FFFF8383FFFF8383FFFF8383FFFFFFFF4F
:10298000FF838383FFFF83FFFF838383FFFF8383B3
:10299000FFFF83838383838383838383838383830F
:1029A000838383838383838383838383FFFF8383FF
:1029B000FFFF8383FFFFFFFFFFFFFF83FFFFFFFF9B
:1029C000FFFFFF83FFFF83FF83FFFF83FFFF8383FF
:1029D00083FFFF83838383838383838383838383CF
:1029E0008383838383FFFFFFFF838383FFFF8383CF
:1029F000FFFF8383FFFF8383FFFF8383FFFF8383C7
:102A0000FFFF8383FFFF83FFFF83838383FFFF83B6
:102A1000FFFF83838383838383838383838383838E
:102A2000838383838383FFFF83838383838383837E
:102A30008383838383FFFFFF838383838383FFFFFA
:102A4000838383838383FFFF8383838383FFFFFFEA
:102A5000FF838383838383838383838383838383CA
:102A6000838383838383FFFF83838383FFFFFFFF4E
:102A7000FFFF83838383FFFF838383838383FFFF3E
:102A8000838383838383FFFF83838383838383FFA2
:102A9000FFFF83838383838383838383838383830E
:102AA00083838383FFFF838383FFFF83FFFFFF8392
:102AB000FFFFFF83FFFFFFFFFFFFFF83FFFF83FF9A
:102AC00083FFFF83FFFF838383FFFF83FFFF8383F6
:102AD00083FFFF83838383838383838383838383CE
:102AE00083838383838383838383838383FFFFFF42
:102AF000FF838383FFFF838383838383FFFF83833A
:102B000083838383FFFF83838383838383FFFFFF29
:102B1000FF83838383838383838383838383838309
:102B20008383838383FFFFFFFF838383FFFF83838D
:102B3000FFFF8383FFFF8383FFFF8383FFFF838385
:102B4000FFFF8383FFFF8383FFFF838383FFFFFFF9
:102B5000FF838383838383838383838383838383C9
:102B6000838383838383838383838383FFFFFFFF45
:102B7000FF838383FFFF8383FFFF8383FFFF8383C1
:102B8000FFFF8383FFFF8383FFFF8383FFFF838335
:102B9000FFFF83838383838383838383838383830D
:102BA00083838383838383FFFFFF83838383FFFF89
:102BB0008383838383FFFFFFFFFF83838383FFFF81
:102BC000838383838383FFFF838383838383FFFFE5
:102BD00083838383838383838383838484848484C0
:102BE00084848484848484848484848484848484A5
:102BF0008484848484848484848484848484848495
:102C00008484848484848484848484848484848484
:102C100084848484848484848484840A0AFEFE8375
:102C20008383830A0AFEFE838383830A0AFEFEFEF1
:102C30008383830A0AFEFEFEFE83830A0AFEFEFEEB
:102C4000FEFEFE0A0AFEFEFEFEFEFE0A0A0A0A0A50
:102C50000A0A0A0A0A0A0A0A0A0A0A838383838377
:102C60008383838383838383838383838383838334
:102C70008383838383838383838383FEFEFEFEFEBD
:102C8000FEFEFEFEFEFEFEFEFEFEFE0A0A0A0A0A28
:102C90000A0A0A0A0A0A0A0A0A0A0A83838383FEBC
:102CA000FE0A0A83838383FEFE0A0A838383FEFE71
:102CB000FE0A0A8383FEFEFEFE0A0AFEFEFEFEFEFA
:102CC000FE0A0AFEFEFEFEFEFE0A0A0A0A0A0A0AB8
:102CD0000A0A0A0A0A0A0A0A0A0A0A373737373773
:102CE00037373737373737373737371C1C1C1C1CFB
:102CF0001C1C1C1C1C1C1C1C1C1C1C1C1C1C1C1C14
:102D00001C1C1C1C1C1C1C1C1C1C1C37373737377C
:102D10003737373737373737373737373737373743
:102D200037373737373737373737372A1C1C1C1CAC
:102D30001C1C1C2A1C1C1C1C1C1C1C2A1C1C1C1CB7
:102D40001C1C1C2A1C1C1C1C1C1C1C37373737372E
:102D50003737373737373737373737373737373703
:102D600037373737373737373737372A2A1C1C1C5E
:102D70001C1C1C2A2A1C1C1C1C1C1C2A2A1C1C1C5B
:102D80001C1C1C2A2A1C1C1C1C1C1C3737373737E0
:102D900037373737373737373737373737373737C3
:102DA00037373737373737373737372A2A2A1C1C10
:102DB0001C1C1C2A2A2A1C1C1C1C1C2A2A2A1C1CFF
:102DC0001C1C1C2A2A2A1C1C1C1C1C373737373792
:102DD0003737373737373737373737373737373783
:102DE00037373737373737373737372A2A2A2A1CC2
:102DF0001C1C1C2A2A2A2A1C1C1C1C2A2A2A2A1CA3
:102E00001C1C1C2A2A2A2A1C1C1C1C373737373743
:102E10003737373737373737373737373737373742
:102E200037373737373737373737372A2A2A2A2A73
:102E30001C1C1C2A2A2A2A2A1C1C1C2A2A2A2A2A46
:102E40001C1C1C2A2A2A2A2A1C1C1C3737373737F5
:102E50003737373737373737373737373737373702
:102E600037373737373737373737372A2A2A2A2A33
:102E70002A1C1C2A2A2A2A2A2A1C1C2A2A2A2A2AEA
:102E80002A1C1C2A2A2A2A2A2A1C1C373737373799
:102E900037373737373737373737373737373737C2
:102EA00037373737373737373737372A2A2A2A2AF3
:102EB0002A2A1C2A2A2A2A2A2A2A1C2A2A2A2A2A8E
:102EC0002A2A1C2A2A2A2A2A2A2A1C37373737373D
:102ED0003737373737373737373737373737373782
:102EE00037373737373737373737372A2A2A2A2AB3
:102EF0002A2A2A2A2A2A2A2A2A2A2A2A2A2A2A2A32
:102F00002A2A2A2A2A2A2A2A2A2A2A3737373737E0
:102F1000373737373737373737373740404040371D
:102F200037373740404040373737374040404040E0
:102F300037373740404040404037374040404040BE
:102F40004040404040404040404040404040404081
:102F5000404040404040404040404037373737379E
:102F600037373737373737373737373737373737F1
:102F700037373737373737373737374040404040B4
:102F80004040404040404040404040404040404041
:102F90004040404040404040404040373737374055
:102FA0004040403737373740404040373737404060
:102FB0004040403737404040404040404040404023
:102FC0004040404040404040404040404040404001
:102FD00040404040404040404040404040404040F1
:102FE0004037374040404040373737404040403717
:102FF0003737374040404037373737404040403719
:1030000037373740404040373737374040404040FF
:1030100037373740404040404037373737404040EF
:1030200040404037373740404040403737373740DF
:1030300040404037373737404040403737373740D8
:1030400040404037373737404040403737374040BF
:103050004040403737404040404040838383838333
:1030600083838383FFFF838383838383FFFF838340
:1030700083838383FFFF838383838383FFFF838330
:1030800083838383FFFF838383838383FFFFFFFF28
:10309000FFFF838383838383838383838383838308
:1030A000838383838383838383838383FFFF8383F8
:1030B000FFFF8383FFFF8383FFFF8383FFFF838300
:1030C000FFFF838383FFFFFFFF8383838383FFFFF0
:1030D00083838383838383838383838383838383C0
:1030E0008383838383FFFFFF838383838383FFFF44
:1030F000838383838383FFFF838383838383FFFFB0
:10310000838383838383FFFF8383838383FFFFFF23
:10311000FF83838383838383838383838383838303
:1031200083838383FFFF8383FFFF8383FFFF838387
:10313000FFFF8383FFFF8383FFFF8383FFFF83837F
:10314000FFFF8383FFFF8383FFFF8383FFFFFFFF77
:10315000FFFF838383838383838383838383838347
:10316000838383838383838383838383FFFFFFFF3F
:10317000FF838383FFFF8383FFFF8383FFFF8383BB
:10318000FFFF8383FFFFFFFFFF838383FFFF8383B3
:1031900083838383FFFF8383838383838383838307
:1031A0008383838383FFFFFFFFFF8383FFFF83838B
:1031B00083838383FFFF838383838383FFFF83FF73
:1031C000FFFF8383FFFF8383FFFF838383FFFFFF73
:1031D000FFFF8383838383838383838383838383C7
:1031E000838383838383838383838383FFFFFFFFBF
:1031F000FF838383FFFF8383FFFF8383FFFF83833B
:1032000083838383FFFF838383838383FFFF83839E
:10321000838383838383838383838383838383837E
:10322000838383838383FFFF838383838383FFFF7E
:10323000838383838383FFFF838383838383FFFF6E
:103240008383838383838383838383838383FFFF56
:10325000838383838383838383838383838383833E
:10326000838383838383FF83838383838383FFFFBA
:10327000838383838383FFFFFF8383838383FFFFB2
:10328000FFFF83838383FFFFFF8383838383FFFFAA
:10329000838383838383FF83838383838383838382
:1032A00083838383838383FF838383838383FFFF7A
:1032B0008383838383FFFFFF83838383FFFFFFFF7A
:1032C0008383838383FFFFFF838383838383FFFF62
:1032D00083838383838383FF838383838383838342
:1032E00083838383FFFF8383FFFF8383FFFFFF834A
:1032F000FFFF8383FFFFFFFFFFFF8383FFFFFFFFCE
:10330000FFFF8383FFFF83FFFFFF8383FFFF838331
:10331000FFFF838383838383838383838383838385
:1033200083838383838383838383838383FFFFFFF9
:10333000FF838383FFFF8383FFFF8383FFFF8383F9
:10334000FFFF8383FFFF8383FFFF838383FFFFFFF1
:10335000FF8383838383838383838301010001014C
:10336000010101020101030101040101050101063E
:10337000010107010108FEFEFFFFFFFEFEFEFEFF4A
:10338000FFFFFFFEFEFEFFFFFFFEFEFEFEFEFFFF55
:10339000FEFEFEFEFEFEFFFFFEFEFEFEFEFEFEFE4B
:1033A000FEFEFEFEFEFEFEFEFEFEFEFEFEFEFEFE3D
:1033B000FEFEFEFEFEFEFEFEFEFFFFFFFEFEFEFE2A
:1033C000FEFFFFFFFFFEFEFEFEFEFEFFFFFFFEFE16
:1033D000FEFEFEFEFFFFFEFEFEFEFEFEFFFFFEFE09
:1033E000FEFEFEFEFEFEFEFEFEFEFEFEFEFEFEFEFD
:1033F000FEFEFEFEFEFEFEFEFEFEFEFEFEFEFEFEED
:10340000FEFEFEFEFEFEFEFEFEFEFEFEFEFEFFFFDA
:10341000FEFEFEFEFEFEFFFFFEFEFEFEFEFEFFFFC8
:10342000FFFEFEFEFEFEFEFFFFFFFFFEFEFEFEFEB7
:10343000FFFFFFFEFEFEFEFEFEFEFEFEFEFEFEFEA9
:10344000FEFEFEFEFEFEFEFEFEFEFEFEFEFEFEFE9C
:10345000FEFEFEFEFFFFFEFEFEFEFEFEFFFFFEFE88
:10346000FEFEFEFFFFFFFEFEFEFFFFFFFFFEFEFE75
:10347000FEFFFFFFFEFEFEFEE8E8E8FEFEFEFEE8C1
:10348000E8E8E8FEFEFEE8E8E8FEFEFEFEFEE8E80C
:10349000FEFEFEFEFEFEE8E8FEFEFEFEFEFEFEFE78
:1034A000FEFEFEFEFEFEFEFEFEFEFEFEFEFEFEFE3C
:1034B000FEFEFEFEFEFEFEFEFEE8E8E8FEFEFEFE6E
:1034C000FEE8E8E8E8FEFEFEFEFEFEE8E8E8FEFEB6
:1034D000FEFEFEFEE8E8FEFEFEFEFEFEE8E8FEFE64
:1034E000FEFEFEFEFEFEFEFEFEFEFEFEFEFEFEFEFC
:1034F000FEFEFEFEFEFEFEFEFEFEFEFEFEFEFEFEEC
:10350000FEFEFEFEFEFEFEFEFEFEFEFEFEFEE8E807
:10351000FEFEFEFEFEFEE8E8FEFEFEFEFEFEE8E823
:10352000E8FEFEFEFEFEFEE8E8E8E8FEFEFEFEFE29
:10353000E8E8E8FEFEFEFEFEFEFEFEFEFEFEFEFEED
:10354000FEFEFEFEFEFEFEFEFEFEFEFEFEFEFEFE9B
:10355000FEFEFEFEE8E8FEFEFEFEFEFEE8E8FEFEE3
:10356000FEFEFEE8E8E8FEFEFEE8E8E8E8FEFEFE15
:10357000FEE8E8E8FEFEFEFEFEFEFEFEFEFEFEFEAD
:10358000FEFEFDFEFEFEFEFEFDFEFDFEFDFEFEFE5F
:10359000FEFDFDFDFEFEFEFDFDFDFEFDFDFDFEFE54
:1035A000FEFDFDFDFEFEFEFEFDFEFDFEFDFEFEFE41
:1035B000FEFEFDFEFEFEFEFEFEFEFEFEFEFEFEFE2C
:1035C000FEFEFEFEFEFEFEFEFEFEFEFEFEFEFEFE1B
:1035D000FEFEFEFEFEFEFEFEFEFEFEFEFEFEFEFE0B
:1035E000FEFEFEFEFEFEFEFEFEFEFEFEFEFEFEFEFB
:1035F000FEFEFEFEFEFE0804208081828384858616
:103600008E8F9091929394959E9FA0A1A2A3A4A522
:10361000ABACAD8B8B8BAEAF08038788898A8B8B65
:103620008C8D969798999A9B9C9D2020A6A7A8A9D7
:10363000AA2000000000000000000000FFFF00FFC3
:10364000FF0000FFFFFFFFFFFFFF00FFFFFFFFFF87
:10365000FFFF0000FFFFFFFFFF00000000FFFFFF74
:10366000000000000000FF0000000000000000005B
:103670000000000000FFFF000000000000FFFF004E
:103680000000000000FFFF000000000000FFFFFF3F
:10369000FFFF000000FFFFFFFFFF000000FFFF0033
:1036A0000000000000FFFF000000000000FFFF001E
:1036B0000000000000000000FFFF0000000000000C
:1036C000FFFF000000000000FFFF000000000000FE
:1036D000FFFF000000000000FFFF000000000000EE
:1036E000FFFF000000000000FFFF000000000000DE
:1036F000FFFF000000FFFF000000000000FFFF00D0
:103700000000000000FFFF000000FFFFFFFFFF00C0
:103710000000FFFFFFFFFF000000000000000000AE
:103720000000000000000000000000000000000099
:103730000000000000FFFF000000000000FFFF008D
:103740000000000000FFFF000000FFFFFFFFFF0080
:103750000000FFFFFFFFFF000000000000FFFF0070
:103760000000000000FFFF000000000000FFFF005D
:103770000000000000000000000000000000000049
:1037800000000000000000000000FFFFFFFFFF003E
:103790000000FFFFFFFFFF000000000000FFFF0030
:1037A0000000000000FFFF000000000000FFFF001D
:1037B0000000000000000000FFFF0000000000FF0C
:1037C000FFFF00000000FFFFFF00000000FFFFFF01
:1037D00000000000FFFFFF00000000FFFFFF0000EF
:1037E0000000FFFFFF0000000000FFFF00000000DE
:1037F0000000FFFF000000000000FFFFFF000000CE
:10380000000000FFFFFF000000000000FFFFFF00BE
:103810000000000000FFFFFF000000000000FFFFAD
:10382000FF000000000000FFFFFF0000000000009C
:10383000FFFF00000000000000FF0000000000008B
:10384000FFFF0000000000FFFFFF00000000FFFF7F
:10385000FFFF000000FFFFFFFFFF0000FFFFFFFF73
:10386000FFFF00FFFFFFFFFFFFFFFFFFFFFFFFFF67
:10387000FFFF00000000000000000000000000004A
:103880000000000000000000000000000000000038
:10389000000000000000FFFFFFFF00000000FFFF2E
:1038A000FFFF00000000FFFFFFFF00000000FFFF20
:1038B000FFFFFF00000000000000FFFF000000000D
:1038C0000000FFFFFF0000000000FFFFFFFF0000FF
:1038D0000000FFFFFFFFFF000000FFFFFFFFFFFFF3
:1038E0000000FFFFFFFFFFFFFF00FFFFFFFFFFFFE5
:1038F000FFFF00000000FFFFFFFF00000000FFFFD0
:10390000FFFF00000000FFFFFFFF00000000FFFFBF
:10391000FFFF0000000000000000000000000000A9
:103920000000000000000000000000000000000097
:103930000000FFFFFFFF00000000FFFFFFFF00008F
:103940000000FFFFFFFF00000000FFFFFFFF00007F
:103950000000000000000000000000000000000067
:103960000000000000000000000000000000000057
:103970000000FFFFFFFFFFFFFFFFFFFFFFFFFFFF55
:10398000FFFF000000000000000000000000000039
:103990000000000000000000000000000000000027
:1039A0000000000000000000000000000000000017
:1039B0000000000000000000000000000000000007
:1039C00000000000000000000000000000000000F7
:1039D00000000000000000000000000000000000E7
:1039E0000000FFFFFFFFFFFFFFFFFFFFFFFFFFFFE5
:1039F000FFFF0000000000000000000000000000C9
:103A000000000000000000000000000000000000B6
:103A10000000FFFFFFFF00000000FFFFFFFF0000AE
:103A20000000FFFFFFFF00000000FFFFFFFF00009E
:103A300000000000000000000000000000FFFFFF89
:103A40000000000000FFFFFF000000FFFFFF00FF7D
:103A5000FFFF00FFFFFF00FFFFFF00000000FF006F
:103A60000000000000FFFFFF000000000000000059
:103A70000000000000000000000000000000000046
:103A800000000000000000000000000000FFFFFF39
:103A9000FFFF000000FFFFFFFFFF000000FFFF002F
:103AA0000000000000FFFF000000000000FFFF001A
:103AB0000000000000000000000000000000000006
:103AC00000000000000000000000FFFFFFFFFFFFFC
:103AD000FFFFFFFFFFFFFFFFFFFF000000000000F0
:103AE00000000000000000000000000000000000D6
:103AF0000000000000FFFF000000000000FFFF00CA
:103B00000000000000FFFF000000FFFFFFFFFFFFBD
:103B1000FFFFFFFFFFFFFFFFFFFF000000FFFF00B1
:103B20000000000000FFFF000000000000FFFF0099
:103B30000000000000000000000000000000000085
:103B400000000000FFFFFFFF000000FFFFFFFFFF7E
:103B5000FF0000FFFFFFFFFFFF0000FFFFFFFFFF71
:103B6000FF000000FFFFFFFF00000000000000005A
:103B70000000000000000000000000000000000045
:103B80000000000000000000000000000000000035
:103B90000000FFFFFFFFFFFFFFFFFFFFFFFFFFFF33
:103BA000FFFFFFFFFFFFFFFFFFFFFFFFFFFFFFFF25
:103BB000FFFFFFFF000000000000FFFF000000000B
:103BC0000000FFFF000000000000FFFF00000000F9
:103BD0000000FFFF000000000000FFFF00000000E9
:103BE0000000FFFF000000000000FFFF00000000D9
:103BF00000000000000000000000000000000000C5
:103C000000000000000000000000FFFFFFFFFFFFBA
:103C1000FFFFFFFFFFFFFFFFFFFF000000FFFF00B0
:103C20000000000000FFFF000000000000FFFF0098
:103C30000000000000FFFF000000000000FFFF0088
:103C40000000000000FFFF000000FFFFFFFFFFFF7C
:103C5000FFFFFFFFFFFFFFFFFFFF0000000000006E
:103C60000000000000000000000000000000000054
:103C70000000FFFFFFFF00000000FFFFFFFF00004C
:103C80000000FFFFFFFF00000000FFFFFFFF00003C
:103C90000000FFFFFFFF00000000FFFFFFFF00002C
:103CA0000000FFFFFFFF00000000FFFFFFFF00001C
:103CB0000000000000FFFF000000000000FFFF0008
:103CC0000000000000FFFF000000000000FFFFFFF9
:103CD000FFFF000000FFFFFFFFFF000000000000EB
:103CE00000000000000000000000000000000000D4
:103CF000000000FFFFFFFF00000000FFFF000000CA
:103D0000000000FFFFFFFF00000000FFFF000000B9
:103D1000000000FFFFFFFFFFFF00000000FFFF00AB
:103D20000000000000FFFFFFFF0000000000000097
:103D300000000000000000000000000000FFFF0085
:103D400000000000FFFFFFFF000000FFFFFFFFFF7C
:103D5000FF00000000FFFF000000000000FFFF0068
:103D60000000000000FFFF00000000000000000055
:103D700000000000000000000000000000FFFF0045
:103D80000000000000FFFF000000000000FFFF0037
:103D9000000000FFFFFFFFFFFF000000FFFFFFFF2D
:103DA0000000000000FFFF00000000000000000015
:103DB00000000000000000000000000000FFFF0005
:103DC00000000000FFFF0000000000FFFFFFFFFFFA
:103DD000FF000000FFFF00000000000000FFFF00E8
:103DE00000000000000000000000000000000000D3
:103DF00000000000000000000000000000FFFF00C5
:103E0000000000000000FFFF000000FFFFFFFFFFB9
:103E1000FF0000000000FFFF0000000000FFFF00A7
:103E20000000000000000000000000000000000092
:103E30000000000000000000000000000000000082
:103E40000000000000000000000000000000000072
:103E50000000000000000000000000000000000062
:103E60000000000000000000000000000000000052
:103E700000000000000000000000000000FFFF0044
:103E80000000000000FFFF000000000000FFFF0036
:103E90000000000000FFFF00000000000000000024
:103EA0000000000000FFFF00000000000000000014
:103EB0000000000000000000000000FFFF0000FF05
:103EC000FF0000FFFF0000FFFF0000FFFF0000FFFA
:103ED000FF000000000000000000000000000000E3
:103EE00000000000000000000000000000000000D2
:103EF0000000000000000000000000FFFF0000FFC5
:103F0000FF00FFFFFFFFFFFFFFFF00FFFF0000FFBD
:103F1000FF0000FFFF0000FFFF00FFFFFFFFFFFFAC
:103F2000FFFF00FFFF0000FFFF0000000000000097
:103F30000000000000FFFF0000000000FFFFFFFF87
:103F4000FF0000FFFF00000000000000FFFFFFFF78
:103F500000000000000000FFFF0000FFFFFFFFFF68
:103F60000000000000FFFF00000000000000000053
:103F70000000000000000000000000FFFF0000FF44
:103F8000FF0000FFFF00FFFF0000000000FFFF0038
:103F900000000000FFFF0000000000FFFF0000FF26
:103FA000FF0000FF000000FFFF0000000000000015
:103FB0000000000000FFFFFF00000000FFFF00FF07
:103FC000FF00000000FFFFFF00000000FFFFFF00F8
:103FD000000000FFFF00FFFFFFFF00FFFF0000FFEA
:103FE000FF000000FFFFFF00FFFF000000000000D7
:103FF00000000000000000000000000000FFFF00C3
:104000000000000000FFFF000000000000FFFF00B4
:1040100000000000000000000000000000000000A0
:104020000000000000000000000000000000000090
:104030000000000000000000000000000000FFFF82
:10404000FF00000000FFFFFF0000000000FFFF0076
:104050000000000000FFFF000000000000FFFFFF65
:10406000000000000000FFFFFF0000000000000053
:104070000000000000000000000000FFFFFF000043
:1040800000000000FFFFFF000000000000FFFF0035
:104090000000000000FFFF0000000000FFFFFF0025
:1040A000000000FFFFFF0000000000000000000013
:1040B0000000000000000000000000FFFF0000FF03
:1040C000FF000000FFFFFFFF0000FFFFFFFFFFFFFB
:1040D000FFFF0000FFFFFFFF000000FFFF0000FFE9
:1040E000FF000000000000000000000000000000D1
:1040F00000000000000000000000000000FFFF00C2
:104100000000000000FFFF00000000FFFFFFFFFFB6
:10411000FF00000000FFFF000000000000FFFF00A4
:10412000000000000000000000000000000000008F
:10413000000000000000000000000000000000007F
:10414000000000000000000000000000000000006F
:1041500000000000000000000000000000FFFF0061
:104160000000000000FFFF0000000000FFFF000053
:10417000000000000000000000000000000000003F
:104180000000000000000000000000FFFFFFFFFF34
:10419000FF00000000000000000000000000000020
:1041A000000000000000000000000000000000000F
:1041B00000000000000000000000000000000000FF
:1041C00000000000000000000000000000000000EF
:1041D00000000000000000000000000000FFFF00E1
:1041E0000000000000FFFF000000000000000000D1
:1041F000000000000000000000000000000000FFC0
:10420000FF0000000000FFFF0000000000FFFF00B3
:1042100000000000FFFF0000000000FFFF000000A2
:10422000000000FF0000000000000000000000008F
:10423000000000000000000000000000FFFFFFFF82
:10424000000000FFFF0000FFFF0000FFFF00FFFF76
:10425000FF0000FFFFFF00FFFF0000FFFF0000FF67
:10426000FF000000FFFFFFFF000000000000000053
:1042700000000000000000000000000000FFFF0040
:1042800000000000FFFFFF000000000000FFFF0033
:104290000000000000FFFF000000000000FFFF0022
:1042A000000000FFFFFFFFFFFF0000000000000014
:1042B000000000000000000000000000FFFFFFFF02
:1042C000000000FFFF0000FFFF0000000000FFFFF4
:1042D0000000000000FFFF0000000000FFFF0000E2
:1042E000000000FFFFFFFFFFFF00000000000000D4
:1042F0000000000000000000000000FFFFFFFFFFC3
:10430000FF0000000000FFFF0000000000FFFF00B2
:10431000000000000000FFFF000000FFFF0000FFA2
:10432000FF000000FFFFFFFF000000000000000092
:104330000000000000000000000000000000FFFF7F
:104340000000000000FFFFFF00000000FFFFFFFF74
:10435000000000FFFF00FFFF000000FFFFFFFFFF66
:10436000FF0000000000FFFF000000000000000050
:104370000000000000000000000000FFFFFFFFFF42
:10438000FF0000FFFF000000000000FFFFFFFFFF35
:1043900000000000000000FFFF0000FFFF0000FF22
:1043A000FF000000FFFFFFFF000000000000000012
:1043B000000000000000000000000000FFFFFFFF01
:1043C000000000FFFF000000000000FFFFFFFFFFF4
:1043D000000000FFFF0000FFFF0000FFFF0000FFE4
:1043E000FF000000FFFFFFFF0000000000000000D2
:1043F0000000000000000000000000FFFFFFFFFFC2
:10440000FF000000000000FFFF0000000000FFFFB1
:104410000000000000FFFF0000000000FFFF0000A0
:1044200000000000FFFF000000000000000000008E
:10443000000000000000000000000000FFFFFFFF80
:10444000000000FFFF0000FFFF000000FFFFFFFF74
:10445000000000FFFF0000FFFF0000FFFF0000FF63
:10446000FF000000FFFFFFFF000000000000000051
:10447000000000000000000000000000FFFFFFFF40
:10448000000000FFFF0000FFFF000000FFFFFFFF34
:10449000FF000000000000FFFF0000000000FFFF21
:1044A00000000000FFFFFF0000000000000000000F
:1044B00000000000000000000000000000000000FC
:1044C0000000000000FFFF000000000000FFFF00F0
:1044D00000000000000000000000000000FFFF00DE
:1044E0000000000000FFFF000000000000000000CE
:1044F00000000000000000000000000000000000BC
:104500000000000000FFFF000000000000FFFF00AF
:1045100000000000000000000000000000FFFF009D
:104520000000000000FFFF0000000000FFFF00008F
:1045300000000000000000FFFF0000000000FFFF7F
:104540000000000000FFFF0000000000FFFF00006F
:104550000000000000FFFF00000000000000FFFF5F
:1045600000000000000000FFFF000000000000004D
:10457000000000000000000000000000000000003B
:10458000000000FFFFFFFFFFFF0000000000000031
:104590000000000000000000000000FFFFFFFFFF20
:1045A000FF0000000000000000000000000000000C
:1045B000000000FFFF00000000000000FFFF0000FF
:1045C0000000000000FFFF00000000000000FFFFEF
:1045D0000000000000FFFF0000000000FFFF0000DF
:1045E000000000FFFF0000000000000000000000CD
:1045F000000000000000000000000000FFFFFFFFBF
:10460000000000FFFF0000FFFF0000000000FFFFB0
:104610000000000000FFFF0000000000000000009C
:104620000000000000FFFF0000000000000000008C
:10463000000000000000000000000000FFFFFFFF7E
:10464000000000FFFF0000FFFF0000FFFF00FFFF72
:10465000FF0000FFFF00FFFFFF0000FFFF00000062
:1046600000000000FFFFFFFFFF000000000000004F
:1046700000000000000000000000000000FFFF003C
:1046800000000000FFFFFFFF000000FFFF0000FF31
:10469000FF0000FFFF0000FFFF0000FFFFFFFFFF24
:1046A000FF0000FFFF0000FFFF000000000000000F
:1046B0000000000000000000000000FFFFFFFFFFFF
:1046C000000000FFFF0000FFFF0000FFFFFFFFFFF3
:1046D000000000FFFF0000FFFF0000FFFF0000FFE1
:1046E000FF0000FFFFFFFFFF0000000000000000D0
:1046F000000000000000000000000000FFFFFFFFBE
:10470000000000FFFF0000FFFF0000FFFF000000AF
:10471000000000FFFF000000000000FFFF0000FF9E
:10472000FF000000FFFFFFFF00000000000000008E
:104730000000000000000000000000FFFFFFFF007D
:10474000000000FFFF00FFFF000000FFFF0000FF70
:10475000FF0000FFFF0000FFFF0000FFFF00FFFF62
:10476000000000FFFFFFFF0000000000000000004D
:104770000000000000000000000000FFFFFFFFFF3E
:10478000FF0000FFFF000000000000FFFFFFFFFF31
:10479000000000FFFF000000000000FFFF0000001D
:1047A000000000FFFFFFFFFFFF000000000000000F
:1047B0000000000000000000000000FFFFFFFFFFFE
:1047C000FF0000FFFF000000000000FFFFFFFFFFF1
:1047D000000000FFFF000000000000FFFF000000DD
:1047E000000000FFFF0000000000000000000000CB
:1047F000000000000000000000000000FFFFFFFFBD
:10480000FF0000FFFF000000000000FFFF000000AD
:10481000000000FFFF00FFFFFF0000FFFF0000FFA0
:10482000FF000000FFFFFFFFFF000000000000008E
:104830000000000000000000000000FFFF0000FF7B
:10484000FF0000FFFF0000FFFF0000FFFFFFFFFF72
:10485000FF0000FFFF0000FFFF0000FFFF0000FF60
:10486000FF0000FFFF0000FFFF000000000000004D
:104870000000000000000000000000FFFFFFFFFF3D
:10488000FF00000000FFFF000000000000FFFF002D
:104890000000000000FFFF000000000000FFFF001C
:1048A000000000FFFFFFFFFFFF000000000000000E
:1048B0000000000000000000000000000000FFFFFA
:1048C000FF000000000000FFFF000000000000FFEC
:1048D000FF000000000000FFFF0000FFFF0000FFDE
:1048E000FF000000FFFFFFFF0000000000000000CD
:1048F0000000000000000000000000FFFF0000FFBB
:10490000FF0000FFFF00FFFF000000FFFFFFFF00B0
:10491000000000FFFFFFFF00000000FFFF00FFFF9F
:10492000000000FFFF0000FFFF000000000000008B
:104930000000000000000000000000FFFF00000079
:10494000000000FFFF000000000000FFFF0000006B
:10495000000000FFFF000000000000FFFF0000005B
:10496000000000FFFFFFFFFFFF000000000000004D
:104970000000000000000000000000FFFF00000039
:10498000FFFF00FFFFFF00FFFFFF00FFFFFFFFFF34
:10499000FFFF00FFFF00FF00FFFF00FFFF00000020
:1049A000FFFF00FFFF000000FFFF0000000000000D
:1049B0000000000000000000000000FFFF0000FFFA
:1049C000FF0000FFFFFF00FFFF0000FFFFFFFFFFF2
:1049D000FF0000FFFFFFFFFFFF0000FFFF00FFFFE2
:1049E000FF0000FFFF0000FFFF00000000000000CC
:1049F000000000000000000000000000FFFFFFFFBB
:104A0000000000FFFF0000FFFF0000FFFF0000FFAD
:104A1000FF0000FFFF0000FFFF0000FFFF0000FF9E
:104A2000FF000000FFFFFFFF00000000000000008B
:104A30000000000000000000000000FFFFFFFFFF7B
:104A4000000000FFFF0000FFFF0000FFFF0000FF6D
:104A5000FF0000FFFFFFFFFF000000FFFF0000005E
:104A6000000000FFFF000000000000000000000048
:104A7000000000000000000000000000FFFFFFFF3A
:104A8000000000FFFF0000FFFF0000FFFF0000FF2D
:104A9000FF0000FFFF0000FFFF0000FFFF00FFFF1F
:104AA00000000000FFFF00FFFF000000000000000A
:104AB0000000000000000000000000FFFFFFFFFFFB
:104AC000000000FFFF0000FFFF0000FFFF0000FFED
:104AD000FF0000FFFFFFFFFF000000FFFF00FFFFE0
:104AE000000000FFFF0000FFFF00000000000000CA
:104AF000000000000000000000000000FFFFFFFFBA
:104B0000000000FFFF00000000000000FFFFFFFFAB
:104B100000000000000000FFFF000000000000FF98
:104B2000FF000000FFFFFFFF00000000000000008A
:104B30000000000000000000000000FFFFFFFFFF7A
:104B4000FF00000000FFFF000000000000FFFF006A
:104B50000000000000FFFF000000000000FFFF0059
:104B60000000000000FFFF00000000000000000047
:104B70000000000000000000000000FFFF0000FF38
:104B8000FF0000FFFF0000FFFF0000FFFF0000FF2D
:104B9000FF0000FFFF0000FFFF0000FFFF0000FF1D
:104BA000FF0000FFFFFFFFFFFF000000000000000C
:104BB0000000000000000000000000FFFF0000FFF8
:104BC000FF0000FFFF0000FFFF0000FFFF0000FFED
:104BD000FF0000FFFF0000FFFF000000FFFFFFFFDE
:104BE0000000000000FFFF000000000000000000C7
:104BF0000000000000000000000000FFFF000000B7
:104C0000FFFF00FFFF000000FFFF00FFFF00FF00AD
:104C1000FFFF00FFFFFFFFFFFFFF00FFFFFF00FFA1
:104C2000FFFF00FFFF000000FFFF0000000000008A
:104C30000000000000000000000000FFFF0000FF77
:104C4000FF0000FFFF0000FFFF000000FFFFFFFF6D
:104C500000000000FFFFFFFF000000FFFF0000FF5B
:104C6000FF0000FFFF0000FFFF0000000000000049
:104C70000000000000000000000000FFFF0000FF37
:104C8000FF0000FFFF0000FFFF000000FFFFFFFF2D
:104C90000000000000FFFF000000000000FFFF0018
:104CA0000000000000FFFF00000000000000000006
:104CB0000000000000000000000000FFFFFFFFFFF9
:104CC000FF0000000000FFFF0000000000FFFF00E9
:104CD00000000000FFFF0000000000FFFF000000D8
:104CE000000000FFFFFFFFFFFF00000000000000CA
:104CF00000000000000000000000000000FFFFFFB7
:104D0000FF00000000FFFF000000000000FFFF00A8
:104D10000000000000FFFF000000000000FFFF0097
:104D20000000000000FFFFFFFF0000000000000087
:104D30000000000000000000000000FF0000000074
:104D4000000000FFFF00000000000000FFFF000067
:104D50000000000000FFFF00000000000000FFFF57
:104D600000000000000000FFFF0000000000000045
:104D70000000000000000000000000FFFFFFFF0037
:104D80000000000000FFFF000000000000FFFF0027
:104D90000000000000FFFF000000000000FFFF0017
:104DA000000000FFFFFFFF00000000000000000007
:104DB0000000000000000000000000000000FF00F4
:104DC0000000000000FFFFFF00000000FFFF00FFE9
:104DD000FF0000FFFF000000FFFF000000000000D8
:104DE00000000000000000000000000000000000C3
:104DF00000000000000000000000000000000000B3
:104E000000000000000000000000000000000000A2
:104E10000000000000000000000000000000000092
:104E20000000FFFFFFFFFFFFFFFF0000000000008A
:104E300000000000000000000000000000FFFF0074
:104E400000000000FFFFFFFF000000FFFFFFFFFF6B
:104E5000FF0000FFFFFFFFFFFF000000FFFFFFFF5D
:104E60000000000000FFFF00000000000000000044
:104E70000000000000000000000000000000000032
:104E800000000000FFFFFFFF00000000000000FF27
:104E9000FF000000FFFFFFFFFF0000FFFF0000FF1B
:104EA000FF000000FFFFFFFFFF0000000000000008
:104EB0000000000000000000000000FFFF000000F4
:104EC000000000FFFF000000000000FFFFFFFFFFE9
:104ED000000000FFFF0000FFFF0000FFFF0000FFD9
:104EE000FF0000FFFFFFFFFF0000000000000000C8
:104EF00000000000000000000000000000000000B2
:104F000000000000FFFFFFFF000000FFFF000000A7
:104F1000000000FFFF000000000000FFFF00000095
:104F200000000000FFFFFFFF000000000000000085
:104F3000000000000000000000000000000000FF72
:104F4000FF000000000000FFFF000000FFFFFFFF68
:104F5000FF0000FFFF0000FFFF0000FFFF0000FF59
:104F6000FF000000FFFFFFFFFF0000000000000047
:104F70000000000000000000000000000000000031
:104F800000000000FFFFFFFF000000FFFF0000FF28
:104F9000FF0000FFFFFFFFFFFF0000FFFF0000001A
:104FA00000000000FFFFFFFF000000000000000005
:104FB0000000000000000000000000000000FFFFF3
:104FC000FF00000000FFFF0000000000FFFFFFFFE8
:104FD000FF00000000FFFF000000000000FFFF00D6
:104FE0000000000000FFFF000000000000000000C3
:104FF00000000000000000000000000000000000B1
:1050000000000000FFFFFFFFFF0000FFFF0000FFA8
:10501000FF0000FFFF0000FFFF000000FFFFFFFF99
:10502000FF000000000000FFFF0000FFFFFFFFFF88
:105030000000000000000000000000FFFF00000072
:10504000000000FFFF000000000000FFFFFFFFFF67
:10505000000000FFFF0000FFFF0000FFFF0000FF57
:10506000FF0000FFFF0000FFFF0000000000000045
:1050700000000000000000000000000000FFFF0032
:10508000000000000000000000000000FFFFFF0023
:105090000000000000FFFF000000000000FFFF0014
:1050A00000000000FFFFFFFF000000000000000004
:1050B000000000000000000000000000000000FFF1
:1050C000FF0000000000000000000000000000FFE2
:1050D000FF000000000000FFFF000000000000FFD4
:1050E000FF000000000000FFFF000000FFFFFFFFC7
:1050F0000000000000000000000000FFFF000000B2
:10510000000000FFFF000000000000FFFF00FFFFA5
:10511000000000FFFFFFFF00000000FFFF00FFFF97
:10512000000000FFFF0000FFFF0000000000000083
:10513000000000000000000000000000FFFFFF0072
:105140000000000000FFFF000000000000FFFF0063
:105150000000000000FFFF000000000000FFFF0053
:1051600000000000FFFFFFFF000000000000000043
:10517000000000000000000000000000000000002F
:10518000000000FFFF0000FFFF0000FFFFFFFFFF28
:10519000FFFF00FFFFFFFFFFFFFF00FFFF00FF001B
:1051A000FFFF00FFFF000000FFFF00000000000005
:1051B00000000000000000000000000000000000EF
:1051C000000000FFFFFFFFFF000000FFFF0000FFE7
:1051D000FF0000FFFF0000FFFF0000FFFF0000FFD7
:1051E000FF0000FFFF0000FFFF00000000000000C4
:1051F00000000000000000000000000000000000AF
:1052000000000000FFFFFFFF000000FFFF0000FFA5
:10521000FF0000FFFF0000FFFF0000FFFF0000FF96
:10522000FF000000FFFFFFFF000000000000000083
:10523000000000000000000000000000000000006E
:10524000000000FFFFFFFFFF000000FFFF0000FF66
:10525000FF0000FFFF0000FFFF0000FFFFFFFFFF58
:10526000000000FFFF000000000000FFFF00000042
:10527000000000000000000000000000000000002E
:1052800000000000FFFFFFFFFF0000FFFF0000FF26
:10529000FF0000FFFF0000FFFF000000FFFFFFFF17
:1052A000FF000000000000FFFF000000000000FF02
:1052B000FF000000000000000000000000000000EF
:1052C000000000FFFFFFFFFF000000FFFF0000FFE6
:1052D000FF0000FFFF000000000000FFFF000000D3
:1052E000000000FFFF0000000000000000000000C0
:1052F00000000000000000000000000000000000AE
:1053000000000000FFFFFFFFFF0000FFFF000000A4
:1053100000000000FFFFFFFF00000000000000FF92
:10532000FF0000FFFFFFFFFF000000000000000083
:1053300000000000000000000000000000FFFF006F
:10534000000000FFFFFFFFFFFF00000000FFFF0065
:105350000000000000FFFF000000000000FFFF0051
:10536000000000000000FFFFFF0000000000000040
:10537000000000000000000000000000000000002D
:10538000000000FFFF0000FFFF0000FFFF0000FF24
:10539000FF0000FFFF0000FFFF0000FFFF0000FF15
:1053A000FF000000FFFFFFFFFF0000000000000003
:1053B00000000000000000000000000000000000ED
:1053C000000000FFFF0000FFFF0000FFFF0000FFE4
:1053D000FF0000FFFF0000FFFF000000FFFFFFFFD6
:1053E0000000000000FFFF000000000000000000BF
:1053F00000000000000000000000000000000000AD
:10540000000000FFFF000000FFFF00FFFF00FF00A3
:10541000FFFF00FFFFFFFFFFFFFF0000FFFFFFFF99
:10542000FF000000FFFF00FFFF0000000000000081
:10543000000000000000000000000000000000006C
:10544000000000FFFF0000FFFF000000FFFFFFFF64
:105450000000000000FFFF0000000000FFFFFFFF52
:10546000000000FFFF0000FFFF0000000000000040
:10547000000000000000000000000000000000002C
:10548000000000FFFF0000FFFF0000FFFF0000FF23
:10549000FF0000FFFF0000FFFF000000FFFFFFFF15
:1054A000FF0000000000FFFF000000FFFFFFFF0003
:1054B00000000000000000000000000000000000EC
:1054C000000000FFFFFFFFFFFF0000000000FFFFE4
:1054D0000000000000FFFF0000000000FFFF0000D0
:1054E000000000FFFFFFFFFFFF00000000000000C2
:1054F00000000000000000000000000000FFFF00AE
:1055000000000000FFFFFFFF000000FFFFFFFFFFA4
:10551000FF0000FFFFFFFFFFFF00000000FFFF0094
:1055200000000000FFFFFFFF00000000000000007F
:105530000000000000FFFF000000000000FFFF006F
:105540000000000000FFFF000000000000FFFF005F
:105550000000000000FFFF000000000000FFFF004F
:105560000000000000FFFF000000000000FFFF003F
:105570000000000000000000000000FFFFFFFFFF30
:10558000FF0000FFFFFFFF00000000FFFFFFFFFF25
:10559000000000FFFF00FFFFFF0000FFFF0000FF13
:1055A000FF000000000000FFFF00000000000000FE
:1055B000000000000000FF000000000000FFFF00EE
:1055C00000000000FFFFFF00000000FFFFFFFF00E2
:1055D00000000000FFFFFF000000000000FFFF00D0
:1055E000000000000000FF000000000000000000BC
:1055F0000000000000FF00000000000000FFFF00AE
:105600000000000000FFFFFF0000000000FFFFFFA0
:10561000FF00000000FFFFFF0000000000FFFF0090
:105620000000000000FF000000000000000000007B
:10563000000000000000000000000000000000006A
:105640000000000000000000000100000000000158
:10565000010100000000000103020000000001023F
:105660000404000000000102040400000000010323
:10567000040400000000000000000000000101011F
:105680000000010001020201000001000203030109
:1056900000000101030303010000020103040301F0
:1056A00001010202040C0402010103030C0D040BAE
:1056B00002020000000000000001000000000000E5
:1056C00000010000000000000102000101000000D4
:1056D0000102010A010000000203020B01010000A7
:1056E0000304030C01010000030503140A0B01016C
:1056F000020500000101000000000101010000009E
:10570000000001020200000000000203010100008D
:105710000001030401000000000204030101010173
:1057200001030403020102020204050C0B0B0B032C
:10573000040D000000000000000000000000000058
:105740000000010100000001000002010001010150
:105750000000020100010202000003020001020138
:10576000000004030002030100010D030203030211
:105770000101000000000000000000000000000027
:105780000000000000000100000000010001020014
:1057900000000101010302000000010303040100F5
:1057A00000000204040401000000030405040100D9
:1057B00000000000000000000000000000000000E9
:1057C00000000000000000000000000000000000D9
:1057D00000000000000000000000000000000000C9
:1057E00000000000000001010000010000010101B3
:1057F000000000000112FFFF362E00010009AEFF7D
:10580000FF360000000112FFFF76000000000AF7DB
:10581000FFFF000000000113FFFF00000000000A6E
:1058200065FF0000000000091CFF000000000000F0
:10583000091C2E25262536FF7676362E2E3636FF87
:10584000FF7E3E362E3636BFFFB63E362E36363615
:10585000FFFFFF773636363EBFFFFFFF3636363660
:105860003EBFFFFFBF3E3E373636B7FFFFFFFFFFAD
:10587000FFFFFFFFFFFFFFFFFFFFFFFFFFFFFFFF38
:10588000FFFFFFFFFFFFFFFFFFFFFFFFFFFFFFFF28
:10589000FFFFFFFFFFFFFFFFFFFFFFFFFFFFFFFF18
:1058A00036FFFFFFFFFFFFB62D76FFFFFFFFFF1C58
:1058B0001313FFFFFFFFFFFFFFFFFFFFFFFFFFFFD0
:1058C000FFFFFFFFFFFFFFFFFFFFFFFFFFFFFFFFE8
:1058D000FFFFFFFFFFFFFFFFFFFF252D36FFFFFF4D
:1058E000FFFF24252EBFFFFFFFFF12131D6EFFFFDA
:1058F000FFFFFFFFFFFFFFFFFFFFFFFFFFFFFFFFB8
:10590000FFFFFFFFFFFFFFFFFFFFFFFFFFFFFFFFA7
:10591000FFFFFFFFFFFFFFFFFFFFFFFFFFFFFFFF97
:10592000FFFFFFFFFFFFFFFFFFFFFFFFFFFFFFFF87
:10593000FFFFFFFFFFFFFFFFBF25FFFFFFFFFFFF91
:10594000FF2EFFFFFFFFFFFFFF36FFFFFFFFFFFF01
:10595000FF7EFFFFFFFFFFFFFFFFFFFFFFFFFFFFD8
:10596000BFFFFFFFFFFFFFFF77FFFFFFFFFFFFFF0F
:1059700036FF1D150D040302000026150403020165
:10598000000025150C020000000026150B01000088
:1059900000002E140A0100000000761C0B09000014
:1059A0000000FF1D0B0A00000000FFFF140A0000AA
:1059B00000000000000000000000000000000000E7
:1059C00000000000000000000000000000000000D7
:1059D00000000000000000000000000000000000C7
:1059E00000000000000000000000000000000000B7
:1059F000010000000001020304040000000203048F
:105A0000040C000000020C04040C00000001030C54
:105A10000C0C00000101030C050D00010103030C37
:105A20000C0D0102010C14151515020201031514C9
:105A30001515030315150C0C03020C03151D0D0C95
:105A40000B0B0D041D1D0D150C0C1D1515251D1D15
:105A50000C14252515252525151D252E1D252E253E
:105A60001D25252E25262D2E2E2E2636362E2E367B
:105A7000FFFF0B1C0B14020B03040C1C14150B046E
:105A80000D0D0C251D1D0C0D0D150C25251D0C14C3
:105A900015150C25252514151D1D152E2E2E1D1D25
:105AA0001D1D152E362E252E2525FF763636362E33
:105AB0002E2D0D0C0C0C0C0C0C150D0C140C140DC7
:105AC00015151515151515151D151D151D1D1D155E
:105AD00025151D1D2525251D251D1D252E25251DAD
